{
  "_format": "hh-sol-artifact-1",
  "contractName": "AccessControlRegistry",
  "sourceName": "contracts/access-control-registry/AccessControlRegistry.sol",
  "abi": [
    {
      "anonymous": false,
      "inputs": [
        {
          "indexed": true,
          "internalType": "bytes32",
          "name": "rootRole",
          "type": "bytes32"
        },
        {
          "indexed": true,
          "internalType": "address",
          "name": "manager",
          "type": "address"
        }
      ],
      "name": "InitializedManager",
      "type": "event"
    },
    {
      "anonymous": false,
      "inputs": [
        {
          "indexed": true,
          "internalType": "bytes32",
          "name": "role",
          "type": "bytes32"
        },
        {
          "indexed": true,
          "internalType": "bytes32",
          "name": "adminRole",
          "type": "bytes32"
        },
        {
          "indexed": false,
          "internalType": "string",
          "name": "description",
          "type": "string"
        },
        {
          "indexed": false,
          "internalType": "address",
          "name": "sender",
          "type": "address"
        }
      ],
      "name": "InitializedRole",
      "type": "event"
    },
    {
      "anonymous": false,
      "inputs": [
        {
          "indexed": true,
          "internalType": "bytes32",
          "name": "role",
          "type": "bytes32"
        },
        {
          "indexed": true,
          "internalType": "bytes32",
          "name": "previousAdminRole",
          "type": "bytes32"
        },
        {
          "indexed": true,
          "internalType": "bytes32",
          "name": "newAdminRole",
          "type": "bytes32"
        }
      ],
      "name": "RoleAdminChanged",
      "type": "event"
    },
    {
      "anonymous": false,
      "inputs": [
        {
          "indexed": true,
          "internalType": "bytes32",
          "name": "role",
          "type": "bytes32"
        },
        {
          "indexed": true,
          "internalType": "address",
          "name": "account",
          "type": "address"
        },
        {
          "indexed": true,
          "internalType": "address",
          "name": "sender",
          "type": "address"
        }
      ],
      "name": "RoleGranted",
      "type": "event"
    },
    {
      "anonymous": false,
      "inputs": [
        {
          "indexed": true,
          "internalType": "bytes32",
          "name": "role",
          "type": "bytes32"
        },
        {
          "indexed": true,
          "internalType": "address",
          "name": "account",
          "type": "address"
        },
        {
          "indexed": true,
          "internalType": "address",
          "name": "sender",
          "type": "address"
        }
      ],
      "name": "RoleRevoked",
      "type": "event"
    },
    {
      "inputs": [],
      "name": "DEFAULT_ADMIN_ROLE",
      "outputs": [
        {
          "internalType": "bytes32",
          "name": "",
          "type": "bytes32"
        }
      ],
      "stateMutability": "view",
      "type": "function"
    },
    {
      "inputs": [
        {
          "internalType": "bytes32",
          "name": "adminRole",
          "type": "bytes32"
        },
        {
          "internalType": "string",
          "name": "description",
          "type": "string"
        }
      ],
      "name": "deriveRole",
      "outputs": [
        {
          "internalType": "bytes32",
          "name": "role",
          "type": "bytes32"
        }
      ],
      "stateMutability": "pure",
      "type": "function"
    },
    {
      "inputs": [
        {
          "internalType": "address",
          "name": "manager",
          "type": "address"
        }
      ],
      "name": "deriveRootRole",
      "outputs": [
        {
          "internalType": "bytes32",
          "name": "rootRole",
          "type": "bytes32"
        }
      ],
      "stateMutability": "pure",
      "type": "function"
    },
    {
      "inputs": [
        {
          "internalType": "bytes32",
          "name": "role",
          "type": "bytes32"
        }
      ],
      "name": "getRoleAdmin",
      "outputs": [
        {
          "internalType": "bytes32",
          "name": "",
          "type": "bytes32"
        }
      ],
      "stateMutability": "view",
      "type": "function"
    },
    {
      "inputs": [
        {
          "internalType": "bytes32",
          "name": "role",
          "type": "bytes32"
        },
        {
          "internalType": "address",
          "name": "account",
          "type": "address"
        }
      ],
      "name": "grantRole",
      "outputs": [],
      "stateMutability": "nonpayable",
      "type": "function"
    },
    {
      "inputs": [
        {
          "internalType": "bytes32",
          "name": "role",
          "type": "bytes32"
        },
        {
          "internalType": "address",
          "name": "account",
          "type": "address"
        }
      ],
      "name": "hasRole",
      "outputs": [
        {
          "internalType": "bool",
          "name": "",
          "type": "bool"
        }
      ],
      "stateMutability": "view",
      "type": "function"
    },
    {
      "inputs": [
        {
          "internalType": "address",
          "name": "manager",
          "type": "address"
        }
      ],
      "name": "initializeManager",
      "outputs": [],
      "stateMutability": "nonpayable",
      "type": "function"
    },
    {
      "inputs": [
        {
          "internalType": "bytes32",
          "name": "adminRole",
          "type": "bytes32"
        },
        {
          "internalType": "string",
          "name": "description",
          "type": "string"
        }
      ],
      "name": "initializeRoleAndGrantToSender",
      "outputs": [
        {
          "internalType": "bytes32",
          "name": "role",
          "type": "bytes32"
        }
      ],
      "stateMutability": "nonpayable",
      "type": "function"
    },
    {
      "inputs": [
        {
          "internalType": "bytes[]",
          "name": "data",
          "type": "bytes[]"
        }
      ],
      "name": "multicall",
      "outputs": [
        {
          "internalType": "bytes[]",
          "name": "results",
          "type": "bytes[]"
        }
      ],
      "stateMutability": "nonpayable",
      "type": "function"
    },
    {
      "inputs": [
        {
          "internalType": "bytes32",
          "name": "role",
          "type": "bytes32"
        },
        {
          "internalType": "address",
          "name": "account",
          "type": "address"
        }
      ],
      "name": "renounceRole",
      "outputs": [],
      "stateMutability": "nonpayable",
      "type": "function"
    },
    {
      "inputs": [
        {
          "internalType": "bytes32",
          "name": "role",
          "type": "bytes32"
        },
        {
          "internalType": "address",
          "name": "account",
          "type": "address"
        }
      ],
      "name": "revokeRole",
      "outputs": [],
      "stateMutability": "nonpayable",
      "type": "function"
    },
    {
      "inputs": [
        {
          "internalType": "bytes4",
          "name": "interfaceId",
          "type": "bytes4"
        }
      ],
      "name": "supportsInterface",
      "outputs": [
        {
          "internalType": "bool",
          "name": "",
          "type": "bool"
        }
      ],
      "stateMutability": "view",
      "type": "function"
    }
  ],
  "bytecode": "0x608060405234801561001057600080fd5b5061114f806100206000396000f3fe608060405234801561001057600080fd5b50600436106100d45760003560e01c8063805d43fc11610081578063ac9650d81161005b578063ac9650d8146101d2578063b530b5e0146101f2578063d547741f1461020557600080fd5b8063805d43fc1461018057806391d1485414610193578063a217fddf146101ca57600080fd5b806336568abe116100b257806336568abe1461014757806373e983621461015a5780637f7120fe1461016d57600080fd5b806301ffc9a7146100d9578063248a9ca3146101015780632f2ff15d14610132575b600080fd5b6100ec6100e7366004610c9a565b610218565b60405190151581526020015b60405180910390f35b61012461010f366004610cdc565b60009081526020819052604090206001015490565b6040519081526020016100f8565b610145610140366004610d11565b6102b1565b005b610145610155366004610d11565b6102dc565b610124610168366004610d3d565b610347565b61014561017b366004610db9565b61042e565b61012461018e366004610db9565b6104fe565b6100ec6101a1366004610d11565b6000918252602082815260408084206001600160a01b0393909316845291905290205460ff1690565b610124600081565b6101e56101e0366004610dd4565b61053e565b6040516100f89190610ea5565b610124610200366004610d3d565b610633565b610145610213366004610d11565b61067d565b60007fffffffff0000000000000000000000000000000000000000000000000000000082167f7965db0b0000000000000000000000000000000000000000000000000000000014806102ab57507f01ffc9a7000000000000000000000000000000000000000000000000000000007fffffffff000000000000000000000000000000000000000000000000000000008316145b92915050565b6000828152602081905260409020600101546102cd81336106a3565b6102d78383610721565b505050565b6102e5816104fe565b8214156103395760405162461bcd60e51b815260206004820152601c60248201527f726f6c6520697320726f6f7420726f6c65206f66206163636f756e740000000060448201526064015b60405180910390fd5b61034382826107bf565b5050565b6000816103965760405162461bcd60e51b815260206004820152601660248201527f526f6c65206465736372697074696f6e20656d707479000000000000000000006044820152606401610330565b6103a1848484610633565b600081815260208190526040812060010154919250141561041d576103c5336104fe565b8414156103d5576103d53361042e565b6103df8185610847565b83817f532ead3ec09896bef1351791fbaad86ac03f3204090a8e7f173f41414b1fdac085853360405161041493929190610f07565b60405180910390a35b61042781336102b1565b9392505050565b6001600160a01b0381166104845760405162461bcd60e51b815260206004820152601460248201527f4d616e616765722061646472657373207a65726f0000000000000000000000006044820152606401610330565b600061048f826104fe565b6000818152602081815260408083206001600160a01b038716845290915290205490915060ff16610343576104c48183610892565b6040516001600160a01b0383169082907f888b171f3b02386c0e4d8c85108dcb8d0ecdad2f274ddc7ce3914282538bdd8890600090a35050565b60408051606083901b6bffffffffffffffffffffffff191660208083019190915282516014818403018152603490920190925280519101206000906102ab565b60608167ffffffffffffffff81111561055957610559610f49565b60405190808252806020026020018201604052801561058c57816020015b60608152602001906001900390816105775790505b50905060005b8281101561062c576105fc308585848181106105b0576105b0610f5f565b90506020028101906105c29190610f75565b8080601f01602080910402602001604051908101604052809392919081815260200183838082843760009201919091525061089c92505050565b82828151811061060e5761060e610f5f565b6020026020010181905250808061062490610fd9565b915050610592565b5092915050565b60006106758484848080601f0160208091040260200160405190810160405280939291908181526020018383808284376000920191909152506108c192505050565b949350505050565b60008281526020819052604090206001015461069981336106a3565b6102d78383610916565b6000828152602081815260408083206001600160a01b038516845290915290205460ff16610343576106df816001600160a01b03166014610995565b6106ea836020610995565b6040516020016106fb929190610ff4565b60408051601f198184030181529082905262461bcd60e51b825261033091600401611075565b6000828152602081815260408083206001600160a01b038516845290915290205460ff16610343576000828152602081815260408083206001600160a01b03851684529091529020805460ff1916600117905561077b3390565b6001600160a01b0316816001600160a01b0316837f2f8788117e7eff1d82e926ec794901d17c78024a50270940304540a733656f0d60405160405180910390a45050565b6001600160a01b038116331461083d5760405162461bcd60e51b815260206004820152602f60248201527f416363657373436f6e74726f6c3a2063616e206f6e6c792072656e6f756e636560448201527f20726f6c657320666f722073656c6600000000000000000000000000000000006064820152608401610330565b6103438282610916565b600082815260208190526040808220600101805490849055905190918391839186917fbd79b86ffe0ab8e8776151514217cd7cacd52c909f66475c3af44e129f0b00ff9190a4505050565b6103438282610721565b606061042783836040518060600160405280602781526020016110f360279139610b76565b600061042783836040516020016108d89190611088565b60408051601f198184030181528282528051602091820120838201949094528282019390935280518083038201815260609092019052805191012090565b6000828152602081815260408083206001600160a01b038516845290915290205460ff1615610343576000828152602081815260408083206001600160a01b0385168085529252808320805460ff1916905551339285917ff6391f5c32d9c69d2a47ea670b442974b53935d1edc7fd64eb21e047a839171b9190a45050565b606060006109a48360026110a4565b6109af9060026110c3565b67ffffffffffffffff8111156109c7576109c7610f49565b6040519080825280601f01601f1916602001820160405280156109f1576020820181803683370190505b5090507f300000000000000000000000000000000000000000000000000000000000000081600081518110610a2857610a28610f5f565b60200101906001600160f81b031916908160001a9053507f780000000000000000000000000000000000000000000000000000000000000081600181518110610a7357610a73610f5f565b60200101906001600160f81b031916908160001a9053506000610a978460026110a4565b610aa29060016110c3565b90505b6001811115610b27577f303132333435363738396162636465660000000000000000000000000000000085600f1660108110610ae357610ae3610f5f565b1a60f81b828281518110610af957610af9610f5f565b60200101906001600160f81b031916908160001a90535060049490941c93610b20816110db565b9050610aa5565b5083156104275760405162461bcd60e51b815260206004820181905260248201527f537472696e67733a20686578206c656e67746820696e73756666696369656e746044820152606401610330565b6060833b610bec5760405162461bcd60e51b815260206004820152602660248201527f416464726573733a2064656c65676174652063616c6c20746f206e6f6e2d636f60448201527f6e747261637400000000000000000000000000000000000000000000000000006064820152608401610330565b600080856001600160a01b031685604051610c079190611088565b600060405180830381855af49150503d8060008114610c42576040519150601f19603f3d011682016040523d82523d6000602084013e610c47565b606091505b5091509150610c57828286610c61565b9695505050505050565b60608315610c70575081610427565b825115610c805782518084602001fd5b8160405162461bcd60e51b81526004016103309190611075565b600060208284031215610cac57600080fd5b81357fffffffff000000000000000000000000000000000000000000000000000000008116811461042757600080fd5b600060208284031215610cee57600080fd5b5035919050565b80356001600160a01b0381168114610d0c57600080fd5b919050565b60008060408385031215610d2457600080fd5b82359150610d3460208401610cf5565b90509250929050565b600080600060408486031215610d5257600080fd5b83359250602084013567ffffffffffffffff80821115610d7157600080fd5b818601915086601f830112610d8557600080fd5b813581811115610d9457600080fd5b876020828501011115610da657600080fd5b6020830194508093505050509250925092565b600060208284031215610dcb57600080fd5b61042782610cf5565b60008060208385031215610de757600080fd5b823567ffffffffffffffff80821115610dff57600080fd5b818501915085601f830112610e1357600080fd5b813581811115610e2257600080fd5b8660208260051b8501011115610e3757600080fd5b60209290920196919550909350505050565b60005b83811015610e64578181015183820152602001610e4c565b83811115610e73576000848401525b50505050565b60008151808452610e91816020860160208601610e49565b601f01601f19169290920160200192915050565b6000602080830181845280855180835260408601915060408160051b870101925083870160005b82811015610efa57603f19888603018452610ee8858351610e79565b94509285019290850190600101610ecc565b5092979650505050505050565b604081528260408201528284606083013760006060848301015260006060601f19601f86011683010190506001600160a01b0383166020830152949350505050565b634e487b7160e01b600052604160045260246000fd5b634e487b7160e01b600052603260045260246000fd5b6000808335601e19843603018112610f8c57600080fd5b83018035915067ffffffffffffffff821115610fa757600080fd5b602001915036819003821315610fbc57600080fd5b9250929050565b634e487b7160e01b600052601160045260246000fd5b6000600019821415610fed57610fed610fc3565b5060010190565b7f416363657373436f6e74726f6c3a206163636f756e742000000000000000000081526000835161102c816017850160208801610e49565b7f206973206d697373696e6720726f6c65200000000000000000000000000000006017918401918201528351611069816028840160208801610e49565b01602801949350505050565b6020815260006104276020830184610e79565b6000825161109a818460208701610e49565b9190910192915050565b60008160001904831182151516156110be576110be610fc3565b500290565b600082198211156110d6576110d6610fc3565b500190565b6000816110ea576110ea610fc3565b50600019019056fe416464726573733a206c6f772d6c6576656c2064656c65676174652063616c6c206661696c6564a2646970667358221220ad34b177fc1fa88e1c3da8cad771b30dd194b57937662d736e93f34166dc871d64736f6c63430008090033",
  "linkReferences": {},
  "deployedLinkReferences": {}
}