{
  "_format": "hh-sol-artifact-1",
  "contractName": "DapiServer",
  "sourceName": "contracts/dapis/DapiServer.sol",
  "abi": [
    {
      "inputs": [
        {
          "internalType": "address",
          "name": "_accessControlRegistry",
          "type": "address"
        },
        {
          "internalType": "string",
          "name": "_adminRoleDescription",
          "type": "string"
        },
        {
          "internalType": "address",
          "name": "_manager",
          "type": "address"
        },
        {
          "internalType": "address",
          "name": "_airnodeProtocol",
          "type": "address"
        }
      ],
      "stateMutability": "nonpayable",
      "type": "constructor"
    },
    {
      "anonymous": false,
      "inputs": [
        {
          "indexed": true,
          "internalType": "bytes32",
          "name": "serviceId",
          "type": "bytes32"
        },
        {
          "indexed": true,
          "internalType": "address",
          "name": "user",
          "type": "address"
        },
        {
          "indexed": true,
          "internalType": "address",
          "name": "sender",
          "type": "address"
        },
        {
          "indexed": false,
          "internalType": "uint256",
          "name": "expiration",
          "type": "uint256"
        }
      ],
      "name": "ExtendedWhitelistExpiration",
      "type": "event"
    },
    {
      "anonymous": false,
      "inputs": [
        {
          "indexed": true,
          "internalType": "bytes32",
          "name": "subscriptionId",
          "type": "bytes32"
        },
        {
          "indexed": false,
          "internalType": "address",
          "name": "airnode",
          "type": "address"
        },
        {
          "indexed": false,
          "internalType": "bytes32",
          "name": "templateId",
          "type": "bytes32"
        },
        {
          "indexed": false,
          "internalType": "bytes",
          "name": "parameters",
          "type": "bytes"
        },
        {
          "indexed": false,
          "internalType": "bytes",
          "name": "conditions",
          "type": "bytes"
        },
        {
          "indexed": false,
          "internalType": "address",
          "name": "relayer",
          "type": "address"
        },
        {
          "indexed": false,
          "internalType": "address",
          "name": "sponsor",
          "type": "address"
        },
        {
          "indexed": false,
          "internalType": "address",
          "name": "requester",
          "type": "address"
        },
        {
          "indexed": false,
          "internalType": "bytes4",
          "name": "fulfillFunctionId",
          "type": "bytes4"
        }
      ],
      "name": "RegisteredBeaconUpdateSubscription",
      "type": "event"
    },
    {
      "anonymous": false,
      "inputs": [
        {
          "indexed": true,
          "internalType": "bytes32",
          "name": "beaconId",
          "type": "bytes32"
        },
        {
          "indexed": true,
          "internalType": "address",
          "name": "sponsor",
          "type": "address"
        },
        {
          "indexed": true,
          "internalType": "address",
          "name": "requester",
          "type": "address"
        },
        {
          "indexed": false,
          "internalType": "bytes32",
          "name": "requestId",
          "type": "bytes32"
        },
        {
          "indexed": false,
          "internalType": "address",
          "name": "airnode",
          "type": "address"
        },
        {
          "indexed": false,
          "internalType": "bytes32",
          "name": "templateId",
          "type": "bytes32"
        }
      ],
      "name": "RequestedRrpBeaconUpdate",
      "type": "event"
    },
    {
      "anonymous": false,
      "inputs": [
        {
          "indexed": true,
          "internalType": "bytes32",
          "name": "beaconId",
          "type": "bytes32"
        },
        {
          "indexed": true,
          "internalType": "address",
          "name": "sponsor",
          "type": "address"
        },
        {
          "indexed": true,
          "internalType": "address",
          "name": "requester",
          "type": "address"
        },
        {
          "indexed": false,
          "internalType": "bytes32",
          "name": "requestId",
          "type": "bytes32"
        },
        {
          "indexed": false,
          "internalType": "address",
          "name": "airnode",
          "type": "address"
        },
        {
          "indexed": false,
          "internalType": "address",
          "name": "relayer",
          "type": "address"
        },
        {
          "indexed": false,
          "internalType": "bytes32",
          "name": "templateId",
          "type": "bytes32"
        }
      ],
      "name": "RequestedRrpBeaconUpdateRelayed",
      "type": "event"
    },
    {
      "anonymous": false,
      "inputs": [
        {
          "indexed": true,
          "internalType": "bytes32",
          "name": "serviceId",
          "type": "bytes32"
        },
        {
          "indexed": true,
          "internalType": "address",
          "name": "user",
          "type": "address"
        },
        {
          "indexed": true,
          "internalType": "address",
          "name": "setter",
          "type": "address"
        },
        {
          "indexed": false,
          "internalType": "address",
          "name": "sender",
          "type": "address"
        },
        {
          "indexed": false,
          "internalType": "uint192",
          "name": "indefiniteWhitelistCount",
          "type": "uint192"
        }
      ],
      "name": "RevokedIndefiniteWhitelistStatus",
      "type": "event"
    },
    {
      "anonymous": false,
      "inputs": [
        {
          "indexed": true,
          "internalType": "bytes32",
          "name": "serviceId",
          "type": "bytes32"
        },
        {
          "indexed": true,
          "internalType": "address",
          "name": "user",
          "type": "address"
        },
        {
          "indexed": true,
          "internalType": "address",
          "name": "sender",
          "type": "address"
        },
        {
          "indexed": false,
          "internalType": "bool",
          "name": "status",
          "type": "bool"
        },
        {
          "indexed": false,
          "internalType": "uint192",
          "name": "indefiniteWhitelistCount",
          "type": "uint192"
        }
      ],
      "name": "SetIndefiniteWhitelistStatus",
      "type": "event"
    },
    {
      "anonymous": false,
      "inputs": [
        {
          "indexed": true,
          "internalType": "bytes32",
          "name": "name",
          "type": "bytes32"
        },
        {
          "indexed": false,
          "internalType": "bytes32",
          "name": "dataPointId",
          "type": "bytes32"
        },
        {
          "indexed": true,
          "internalType": "address",
          "name": "sender",
          "type": "address"
        }
      ],
      "name": "SetName",
      "type": "event"
    },
    {
      "anonymous": false,
      "inputs": [
        {
          "indexed": true,
          "internalType": "address",
          "name": "sponsor",
          "type": "address"
        },
        {
          "indexed": true,
          "internalType": "address",
          "name": "rrpBeaconUpdateRequester",
          "type": "address"
        },
        {
          "indexed": false,
          "internalType": "bool",
          "name": "status",
          "type": "bool"
        }
      ],
      "name": "SetRrpBeaconUpdatePermissionStatus",
      "type": "event"
    },
    {
      "anonymous": false,
      "inputs": [
        {
          "indexed": true,
          "internalType": "bytes32",
          "name": "serviceId",
          "type": "bytes32"
        },
        {
          "indexed": true,
          "internalType": "address",
          "name": "user",
          "type": "address"
        },
        {
          "indexed": true,
          "internalType": "address",
          "name": "sender",
          "type": "address"
        },
        {
          "indexed": false,
          "internalType": "uint256",
          "name": "expiration",
          "type": "uint256"
        }
      ],
      "name": "SetWhitelistExpiration",
      "type": "event"
    },
    {
      "anonymous": false,
      "inputs": [
        {
          "indexed": true,
          "internalType": "bytes32",
          "name": "beaconId",
          "type": "bytes32"
        },
        {
          "indexed": false,
          "internalType": "bytes32",
          "name": "subscriptionId",
          "type": "bytes32"
        },
        {
          "indexed": false,
          "internalType": "int224",
          "name": "value",
          "type": "int224"
        },
        {
          "indexed": false,
          "internalType": "uint32",
          "name": "timestamp",
          "type": "uint32"
        }
      ],
      "name": "UpdatedBeaconWithPsp",
      "type": "event"
    },
    {
      "anonymous": false,
      "inputs": [
        {
          "indexed": true,
          "internalType": "bytes32",
          "name": "beaconId",
          "type": "bytes32"
        },
        {
          "indexed": false,
          "internalType": "bytes32",
          "name": "requestId",
          "type": "bytes32"
        },
        {
          "indexed": false,
          "internalType": "int256",
          "name": "value",
          "type": "int256"
        },
        {
          "indexed": false,
          "internalType": "uint256",
          "name": "timestamp",
          "type": "uint256"
        }
      ],
      "name": "UpdatedBeaconWithRrp",
      "type": "event"
    },
    {
      "anonymous": false,
      "inputs": [
        {
          "indexed": true,
          "internalType": "bytes32",
          "name": "beaconId",
          "type": "bytes32"
        },
        {
          "indexed": false,
          "internalType": "int256",
          "name": "value",
          "type": "int256"
        },
        {
          "indexed": false,
          "internalType": "uint256",
          "name": "timestamp",
          "type": "uint256"
        }
      ],
      "name": "UpdatedBeaconWithSignedData",
      "type": "event"
    },
    {
      "anonymous": false,
      "inputs": [
        {
          "indexed": true,
          "internalType": "bytes32",
          "name": "dapiId",
          "type": "bytes32"
        },
        {
          "indexed": false,
          "internalType": "int224",
          "name": "value",
          "type": "int224"
        },
        {
          "indexed": false,
          "internalType": "uint32",
          "name": "timestamp",
          "type": "uint32"
        }
      ],
      "name": "UpdatedDapiWithBeacons",
      "type": "event"
    },
    {
      "anonymous": false,
      "inputs": [
        {
          "indexed": true,
          "internalType": "bytes32",
          "name": "dapiId",
          "type": "bytes32"
        },
        {
          "indexed": false,
          "internalType": "int224",
          "name": "value",
          "type": "int224"
        },
        {
          "indexed": false,
          "internalType": "uint32",
          "name": "timestamp",
          "type": "uint32"
        }
      ],
      "name": "UpdatedDapiWithSignedData",
      "type": "event"
    },
    {
      "inputs": [],
      "name": "HUNDRED_PERCENT",
      "outputs": [
        {
          "internalType": "uint256",
          "name": "",
          "type": "uint256"
        }
      ],
      "stateMutability": "view",
      "type": "function"
    },
    {
      "inputs": [],
      "name": "INDEFINITE_WHITELISTER_ROLE_DESCRIPTION",
      "outputs": [
        {
          "internalType": "string",
          "name": "",
          "type": "string"
        }
      ],
      "stateMutability": "view",
      "type": "function"
    },
    {
      "inputs": [],
      "name": "NAME_SETTER_ROLE_DESCRIPTION",
      "outputs": [
        {
          "internalType": "string",
          "name": "",
          "type": "string"
        }
      ],
      "stateMutability": "view",
      "type": "function"
    },
    {
      "inputs": [],
      "name": "UNLIMITED_READER_ROLE_DESCRIPTION",
      "outputs": [
        {
          "internalType": "string",
          "name": "",
          "type": "string"
        }
      ],
      "stateMutability": "view",
      "type": "function"
    },
    {
      "inputs": [],
      "name": "WHITELIST_EXPIRATION_EXTENDER_ROLE_DESCRIPTION",
      "outputs": [
        {
          "internalType": "string",
          "name": "",
          "type": "string"
        }
      ],
      "stateMutability": "view",
      "type": "function"
    },
    {
      "inputs": [],
      "name": "WHITELIST_EXPIRATION_SETTER_ROLE_DESCRIPTION",
      "outputs": [
        {
          "internalType": "string",
          "name": "",
          "type": "string"
        }
      ],
      "stateMutability": "view",
      "type": "function"
    },
    {
      "inputs": [],
      "name": "accessControlRegistry",
      "outputs": [
        {
          "internalType": "address",
          "name": "",
          "type": "address"
        }
      ],
      "stateMutability": "view",
      "type": "function"
    },
    {
      "inputs": [],
      "name": "adminRole",
      "outputs": [
        {
          "internalType": "bytes32",
          "name": "",
          "type": "bytes32"
        }
      ],
      "stateMutability": "view",
      "type": "function"
    },
    {
      "inputs": [],
      "name": "adminRoleDescription",
      "outputs": [
        {
          "internalType": "string",
          "name": "",
          "type": "string"
        }
      ],
      "stateMutability": "view",
      "type": "function"
    },
    {
      "inputs": [],
      "name": "airnodeProtocol",
      "outputs": [
        {
          "internalType": "address",
          "name": "",
          "type": "address"
        }
      ],
      "stateMutability": "view",
      "type": "function"
    },
    {
      "inputs": [
        {
          "internalType": "bytes32",
          "name": "subscriptionId",
          "type": "bytes32"
        },
        {
          "internalType": "bytes",
          "name": "data",
          "type": "bytes"
        },
        {
          "internalType": "bytes",
          "name": "conditionParameters",
          "type": "bytes"
        }
      ],
      "name": "conditionPspBeaconUpdate",
      "outputs": [
        {
          "internalType": "bool",
          "name": "",
          "type": "bool"
        }
      ],
      "stateMutability": "view",
      "type": "function"
    },
    {
      "inputs": [
        {
          "internalType": "bytes32",
          "name": "subscriptionId",
          "type": "bytes32"
        },
        {
          "internalType": "bytes",
          "name": "data",
          "type": "bytes"
        },
        {
          "internalType": "bytes",
          "name": "conditionParameters",
          "type": "bytes"
        }
      ],
      "name": "conditionPspDapiUpdate",
      "outputs": [
        {
          "internalType": "bool",
          "name": "",
          "type": "bool"
        }
      ],
      "stateMutability": "nonpayable",
      "type": "function"
    },
    {
      "inputs": [
        {
          "internalType": "bytes32",
          "name": "dataPointId",
          "type": "bytes32"
        },
        {
          "internalType": "address",
          "name": "reader",
          "type": "address"
        },
        {
          "internalType": "address",
          "name": "setter",
          "type": "address"
        }
      ],
      "name": "dataPointIdToReaderToSetterToIndefiniteWhitelistStatus",
      "outputs": [
        {
          "internalType": "bool",
          "name": "indefiniteWhitelistStatus",
          "type": "bool"
        }
      ],
      "stateMutability": "view",
      "type": "function"
    },
    {
      "inputs": [
        {
          "internalType": "bytes32",
          "name": "dataPointId",
          "type": "bytes32"
        },
        {
          "internalType": "address",
          "name": "reader",
          "type": "address"
        }
      ],
      "name": "dataPointIdToReaderToWhitelistStatus",
      "outputs": [
        {
          "internalType": "uint64",
          "name": "expirationTimestamp",
          "type": "uint64"
        },
        {
          "internalType": "uint192",
          "name": "indefiniteWhitelistCount",
          "type": "uint192"
        }
      ],
      "stateMutability": "view",
      "type": "function"
    },
    {
      "inputs": [
        {
          "internalType": "address",
          "name": "airnode",
          "type": "address"
        },
        {
          "internalType": "bytes32",
          "name": "templateId",
          "type": "bytes32"
        }
      ],
      "name": "deriveBeaconId",
      "outputs": [
        {
          "internalType": "bytes32",
          "name": "beaconId",
          "type": "bytes32"
        }
      ],
      "stateMutability": "pure",
      "type": "function"
    },
    {
      "inputs": [
        {
          "internalType": "bytes32[]",
          "name": "beaconIds",
          "type": "bytes32[]"
        }
      ],
      "name": "deriveDapiId",
      "outputs": [
        {
          "internalType": "bytes32",
          "name": "dapiId",
          "type": "bytes32"
        }
      ],
      "stateMutability": "pure",
      "type": "function"
    },
    {
      "inputs": [
        {
          "internalType": "bytes32",
          "name": "serviceId",
          "type": "bytes32"
        },
        {
          "internalType": "address",
          "name": "user",
          "type": "address"
        },
        {
          "internalType": "uint64",
          "name": "expirationTimestamp",
          "type": "uint64"
        }
      ],
      "name": "extendWhitelistExpiration",
      "outputs": [],
      "stateMutability": "nonpayable",
      "type": "function"
    },
    {
      "inputs": [
        {
          "internalType": "bytes32",
          "name": "subscriptionId",
          "type": "bytes32"
        },
        {
          "internalType": "address",
          "name": "airnode",
          "type": "address"
        },
        {
          "internalType": "address",
          "name": "relayer",
          "type": "address"
        },
        {
          "internalType": "address",
          "name": "sponsor",
          "type": "address"
        },
        {
          "internalType": "uint256",
          "name": "timestamp",
          "type": "uint256"
        },
        {
          "internalType": "bytes",
          "name": "data",
          "type": "bytes"
        },
        {
          "internalType": "bytes",
          "name": "signature",
          "type": "bytes"
        }
      ],
      "name": "fulfillPspBeaconUpdate",
      "outputs": [],
      "stateMutability": "nonpayable",
      "type": "function"
    },
    {
      "inputs": [
        {
          "internalType": "bytes32",
          "name": "subscriptionId",
          "type": "bytes32"
        },
        {
          "internalType": "address",
          "name": "airnode",
          "type": "address"
        },
        {
          "internalType": "address",
          "name": "relayer",
          "type": "address"
        },
        {
          "internalType": "address",
          "name": "sponsor",
          "type": "address"
        },
        {
          "internalType": "uint256",
          "name": "timestamp",
          "type": "uint256"
        },
        {
          "internalType": "bytes",
          "name": "data",
          "type": "bytes"
        },
        {
          "internalType": "bytes",
          "name": "signature",
          "type": "bytes"
        }
      ],
      "name": "fulfillPspDapiUpdate",
      "outputs": [],
      "stateMutability": "nonpayable",
      "type": "function"
    },
    {
      "inputs": [
        {
          "internalType": "bytes32",
          "name": "requestId",
          "type": "bytes32"
        },
        {
          "internalType": "uint256",
          "name": "timestamp",
          "type": "uint256"
        },
        {
          "internalType": "bytes",
          "name": "data",
          "type": "bytes"
        }
      ],
      "name": "fulfillRrpBeaconUpdate",
      "outputs": [],
      "stateMutability": "nonpayable",
      "type": "function"
    },
    {
      "inputs": [],
      "name": "indefiniteWhitelisterRole",
      "outputs": [
        {
          "internalType": "bytes32",
          "name": "",
          "type": "bytes32"
        }
      ],
      "stateMutability": "view",
      "type": "function"
    },
    {
      "inputs": [],
      "name": "manager",
      "outputs": [
        {
          "internalType": "address",
          "name": "",
          "type": "address"
        }
      ],
      "stateMutability": "view",
      "type": "function"
    },
    {
      "inputs": [],
      "name": "nameSetterRole",
      "outputs": [
        {
          "internalType": "bytes32",
          "name": "",
          "type": "bytes32"
        }
      ],
      "stateMutability": "view",
      "type": "function"
    },
    {
      "inputs": [
        {
          "internalType": "bytes32",
          "name": "name",
          "type": "bytes32"
        }
      ],
      "name": "nameToDataPointId",
      "outputs": [
        {
          "internalType": "bytes32",
          "name": "",
          "type": "bytes32"
        }
      ],
      "stateMutability": "view",
      "type": "function"
    },
    {
      "inputs": [
        {
          "internalType": "bytes32",
          "name": "dataPointId",
          "type": "bytes32"
        }
      ],
      "name": "readWithDataPointId",
      "outputs": [
        {
          "internalType": "int224",
          "name": "value",
          "type": "int224"
        },
        {
          "internalType": "uint32",
          "name": "timestamp",
          "type": "uint32"
        }
      ],
      "stateMutability": "view",
      "type": "function"
    },
    {
      "inputs": [
        {
          "internalType": "bytes32",
          "name": "name",
          "type": "bytes32"
        }
      ],
      "name": "readWithName",
      "outputs": [
        {
          "internalType": "int224",
          "name": "value",
          "type": "int224"
        },
        {
          "internalType": "uint32",
          "name": "timestamp",
          "type": "uint32"
        }
      ],
      "stateMutability": "view",
      "type": "function"
    },
    {
      "inputs": [
        {
          "internalType": "bytes32",
          "name": "dataPointId",
          "type": "bytes32"
        },
        {
          "internalType": "address",
          "name": "reader",
          "type": "address"
        }
      ],
      "name": "readerCanReadDataPoint",
      "outputs": [
        {
          "internalType": "bool",
          "name": "",
          "type": "bool"
        }
      ],
      "stateMutability": "view",
      "type": "function"
    },
    {
      "inputs": [
        {
          "internalType": "address",
          "name": "airnode",
          "type": "address"
        },
        {
          "internalType": "bytes32",
          "name": "templateId",
          "type": "bytes32"
        },
        {
          "internalType": "bytes",
          "name": "conditions",
          "type": "bytes"
        },
        {
          "internalType": "address",
          "name": "relayer",
          "type": "address"
        },
        {
          "internalType": "address",
          "name": "sponsor",
          "type": "address"
        }
      ],
      "name": "registerBeaconUpdateSubscription",
      "outputs": [
        {
          "internalType": "bytes32",
          "name": "subscriptionId",
          "type": "bytes32"
        }
      ],
      "stateMutability": "nonpayable",
      "type": "function"
    },
    {
      "inputs": [
        {
          "internalType": "address",
          "name": "airnode",
          "type": "address"
        },
        {
          "internalType": "bytes32",
          "name": "templateId",
          "type": "bytes32"
        },
        {
          "internalType": "address",
          "name": "sponsor",
          "type": "address"
        }
      ],
      "name": "requestRrpBeaconUpdate",
      "outputs": [
        {
          "internalType": "bytes32",
          "name": "requestId",
          "type": "bytes32"
        }
      ],
      "stateMutability": "nonpayable",
      "type": "function"
    },
    {
      "inputs": [
        {
          "internalType": "address",
          "name": "airnode",
          "type": "address"
        },
        {
          "internalType": "bytes32",
          "name": "templateId",
          "type": "bytes32"
        },
        {
          "internalType": "address",
          "name": "relayer",
          "type": "address"
        },
        {
          "internalType": "address",
          "name": "sponsor",
          "type": "address"
        }
      ],
      "name": "requestRrpBeaconUpdateRelayed",
      "outputs": [
        {
          "internalType": "bytes32",
          "name": "requestId",
          "type": "bytes32"
        }
      ],
      "stateMutability": "nonpayable",
      "type": "function"
    },
    {
      "inputs": [
        {
          "internalType": "bytes32",
          "name": "serviceId",
          "type": "bytes32"
        },
        {
          "internalType": "address",
          "name": "user",
          "type": "address"
        },
        {
          "internalType": "address",
          "name": "setter",
          "type": "address"
        }
      ],
      "name": "revokeIndefiniteWhitelistStatus",
      "outputs": [],
      "stateMutability": "nonpayable",
      "type": "function"
    },
    {
      "inputs": [
        {
          "internalType": "bytes32",
          "name": "serviceId",
          "type": "bytes32"
        },
        {
          "internalType": "address",
          "name": "user",
          "type": "address"
        },
        {
          "internalType": "bool",
          "name": "status",
          "type": "bool"
        }
      ],
      "name": "setIndefiniteWhitelistStatus",
      "outputs": [],
      "stateMutability": "nonpayable",
      "type": "function"
    },
    {
      "inputs": [
        {
          "internalType": "bytes32",
          "name": "name",
          "type": "bytes32"
        },
        {
          "internalType": "bytes32",
          "name": "dataPointId",
          "type": "bytes32"
        }
      ],
      "name": "setName",
      "outputs": [],
      "stateMutability": "nonpayable",
      "type": "function"
    },
    {
      "inputs": [
        {
          "internalType": "address",
          "name": "rrpBeaconUpdateRequester",
          "type": "address"
        },
        {
          "internalType": "bool",
          "name": "status",
          "type": "bool"
        }
      ],
      "name": "setRrpBeaconUpdatePermissionStatus",
      "outputs": [],
      "stateMutability": "nonpayable",
      "type": "function"
    },
    {
      "inputs": [
        {
          "internalType": "bytes32",
          "name": "serviceId",
          "type": "bytes32"
        },
        {
          "internalType": "address",
          "name": "user",
          "type": "address"
        },
        {
          "internalType": "uint64",
          "name": "expirationTimestamp",
          "type": "uint64"
        }
      ],
      "name": "setWhitelistExpiration",
      "outputs": [],
      "stateMutability": "nonpayable",
      "type": "function"
    },
    {
      "inputs": [
        {
          "internalType": "address",
          "name": "",
          "type": "address"
        },
        {
          "internalType": "address",
          "name": "",
          "type": "address"
        }
      ],
      "name": "sponsorToRrpBeaconUpdateRequesterToPermissionStatus",
      "outputs": [
        {
          "internalType": "bool",
          "name": "",
          "type": "bool"
        }
      ],
      "stateMutability": "view",
      "type": "function"
    },
    {
      "inputs": [
        {
          "internalType": "bytes32",
          "name": "",
          "type": "bytes32"
        }
      ],
      "name": "subscriptionIdToBeaconId",
      "outputs": [
        {
          "internalType": "bytes32",
          "name": "",
          "type": "bytes32"
        }
      ],
      "stateMutability": "view",
      "type": "function"
    },
    {
      "inputs": [],
      "name": "unlimitedReaderRole",
      "outputs": [
        {
          "internalType": "bytes32",
          "name": "",
          "type": "bytes32"
        }
      ],
      "stateMutability": "view",
      "type": "function"
    },
    {
      "inputs": [
        {
          "internalType": "address",
          "name": "airnode",
          "type": "address"
        },
        {
          "internalType": "bytes32",
          "name": "templateId",
          "type": "bytes32"
        },
        {
          "internalType": "uint256",
          "name": "timestamp",
          "type": "uint256"
        },
        {
          "internalType": "bytes",
          "name": "data",
          "type": "bytes"
        },
        {
          "internalType": "bytes",
          "name": "signature",
          "type": "bytes"
        }
      ],
      "name": "updateBeaconWithSignedData",
      "outputs": [],
      "stateMutability": "nonpayable",
      "type": "function"
    },
    {
      "inputs": [
        {
          "internalType": "bytes32[]",
          "name": "beaconIds",
          "type": "bytes32[]"
        }
      ],
      "name": "updateDapiWithBeacons",
      "outputs": [
        {
          "internalType": "bytes32",
          "name": "dapiId",
          "type": "bytes32"
        }
      ],
      "stateMutability": "nonpayable",
      "type": "function"
    },
    {
      "inputs": [
        {
          "internalType": "bytes32[]",
          "name": "beaconIds",
          "type": "bytes32[]"
        },
        {
          "internalType": "uint256",
          "name": "updateThresholdInPercentage",
          "type": "uint256"
        }
      ],
      "name": "updateDapiWithBeaconsAndReturnCondition",
      "outputs": [
        {
          "internalType": "bool",
          "name": "",
          "type": "bool"
        }
      ],
      "stateMutability": "nonpayable",
      "type": "function"
    },
    {
      "inputs": [
        {
          "internalType": "address[]",
          "name": "airnodes",
          "type": "address[]"
        },
        {
          "internalType": "bytes32[]",
          "name": "templateIds",
          "type": "bytes32[]"
        },
        {
          "internalType": "uint256[]",
          "name": "timestamps",
          "type": "uint256[]"
        },
        {
          "internalType": "bytes[]",
          "name": "data",
          "type": "bytes[]"
        },
        {
          "internalType": "bytes[]",
          "name": "signatures",
          "type": "bytes[]"
        }
      ],
      "name": "updateDapiWithSignedData",
      "outputs": [
        {
          "internalType": "bytes32",
          "name": "dapiId",
          "type": "bytes32"
        }
      ],
      "stateMutability": "nonpayable",
      "type": "function"
    },
    {
      "inputs": [],
      "name": "whitelistExpirationExtenderRole",
      "outputs": [
        {
          "internalType": "bytes32",
          "name": "",
          "type": "bytes32"
        }
      ],
      "stateMutability": "view",
      "type": "function"
    },
    {
      "inputs": [],
      "name": "whitelistExpirationSetterRole",
      "outputs": [
        {
          "internalType": "bytes32",
          "name": "",
          "type": "bytes32"
        }
      ],
      "stateMutability": "view",
      "type": "function"
    }
  ],
  "bytecode": "0x6101c06040523480156200001257600080fd5b50604051620057c9380380620057c983398101604081905262000035916200059a565b808484848282828282828282816001600160a01b038116620000915760405162461bcd60e51b815260206004820152601060248201526f4143522061646472657373207a65726f60801b60448201526064015b60405180910390fd5b6001600160a01b03166080528051620000ed5760405162461bcd60e51b815260206004820152601c60248201527f41646d696e20726f6c65206465736372697074696f6e20656d70747900000000604482015260640162000088565b8051620001029060029060208401906200048e565b50806040516020016200011691906200068d565b60408051601f19818403018152919052805160209091012060a05250506001600160a01b0381166200018b5760405162461bcd60e51b815260206004820152601460248201527f4d616e616765722061646472657373207a65726f000000000000000000000000604482015260640162000088565b6001600160a01b03811660c052620001a381620003e8565b60e081815250505050506200021e60e0516040518060400160405280601d81526020017f57686974656c6973742065787069726174696f6e20657874656e646572000000815250604051602001620001fc91906200068d565b604051602081830303815290604052805190602001206200046260201b60201c565b61010081815250506200027560e0516040518060400160405280601b81526020017f57686974656c6973742065787069726174696f6e207365747465720000000000815250604051602001620001fc91906200068d565b6101208181525050620002cc60e0516040518060400160405280601681526020017f496e646566696e6974652077686974656c697374657200000000000000000000815250604051602001620001fc91906200068d565b6101405250505050506001600160a01b03821615159050620003315760405162461bcd60e51b815260206004820152601c60248201527f4169726e6f646550726f746f636f6c2061646472657373207a65726f00000000604482015260640162000088565b6001600160a01b03166101605260c0516200038c906200035190620003e8565b6040518060400160405280601081526020016f2ab73634b6b4ba32b2103932b0b232b960811b815250604051602001620001fc91906200068d565b6101805260c051620003d990620003a390620003e8565b6040518060400160405280600b81526020016a2730b6b29039b2ba3a32b960a91b815250604051602001620001fc91906200068d565b6101a05250620006e892505050565b60006200045c6200042d836040516001600160601b0319606083901b166020820152600090603401604051602081830303815290604052805190602001209050919050565b60a051604080516020808201949094528082019290925280518083038201815260609092019052805191012090565b92915050565b604080516020808201949094528082019290925280518083038201815260609092019052805191012090565b8280546200049c90620006ab565b90600052602060002090601f016020900481019282620004c057600085556200050b565b82601f10620004db57805160ff19168380011785556200050b565b828001600101855582156200050b579182015b828111156200050b578251825591602001919060010190620004ee565b50620005199291506200051d565b5090565b5b808211156200051957600081556001016200051e565b80516001600160a01b03811681146200054c57600080fd5b919050565b634e487b7160e01b600052604160045260246000fd5b60005b83811015620005845781810151838201526020016200056a565b8381111562000594576000848401525b50505050565b60008060008060808587031215620005b157600080fd5b620005bc8562000534565b60208601519094506001600160401b0380821115620005da57600080fd5b818701915087601f830112620005ef57600080fd5b81518181111562000604576200060462000551565b604051601f8201601f19908116603f011681019083821181831017156200062f576200062f62000551565b816040528281528a60208487010111156200064957600080fd5b6200065c83602083016020880162000567565b8097505050505050620006726040860162000534565b9150620006826060860162000534565b905092959194509250565b60008251620006a181846020870162000567565b9190910192915050565b600181811c90821680620006c057607f821691505b60208210811415620006e257634e487b7160e01b600052602260045260246000fd5b50919050565b60805160a05160c05160e05161010051610120516101405161016051610180516101a051614ff1620007d8600039600081816104e501526127e30152600081816107bf015261210c0152600081816106d6015281816112000152818161161e0152611fd10152600081816107720152612e290152600081816105ef0152612ce90152600081816105c801526132e5015260006102fd015260008181610452015281816127ad01528181612cab01528181612deb01526132a70152600050506000818161035f015281816121420152818161280f01528181612d1f01528181612e5f015261331b0152614ff16000f3fe608060405234801561001057600080fd5b50600436106102f35760003560e01c806394156f1911610191578063dc96acc8116100e3578063ecd8b6c011610097578063f95bb91e11610071578063f95bb91e1461086d578063fb554a8f14610880578063fc3c1f8b146108bc57600080fd5b8063ecd8b6c0146107ba578063f566052d146107e1578063f859ea511461085a57600080fd5b8063e18de857116100c8578063e18de8571461076d578063e705882e14610794578063ea6d6e64146107a757600080fd5b8063dc96acc814610747578063dddea7a21461075a57600080fd5b8063a026658f11610145578063b76f3c151161011f578063b76f3c15146106d1578063c7c1a1fa146106f8578063d55a42dd1461070b57600080fd5b8063a026658f1461068b578063a1e25cb9146106ab578063a6b1b9a2146106be57600080fd5b8063977cae0111610176578063977cae01146106375780639c112812146106655780639e14caa81461067857600080fd5b806394156f1914610611578063942124051461062457600080fd5b80635bc8a5c81161024a5780636db798f9116101fe578063776bcbd2116101d8578063776bcbd2146105b05780637c706738146105c35780638fe47dd8146105ea57600080fd5b80636db798f9146105565780636ed93dd0146105925780636fd408a81461059d57600080fd5b80635fce0b601161022f5780635fce0b60146104e057806365e2ad3d146105075780636bd2bdd01461051a57600080fd5b80635bc8a5c81461047c5780635d041cf91461048f57600080fd5b8063206b48f4116102ac578063440db7ed11610286578063440db7ed14610404578063481c6a751461044d5780634c8f1d8d1461047457600080fd5b8063206b48f4146103ac5780632d0c0847146103bf5780633376e7c2146103f157600080fd5b80631a0a0b3e116102dd5780631a0a0b3e146103455780631ce9ae071461035a5780631d36cf5c1461039957600080fd5b80629f2f3c146102f857806304dd3cee14610332575b600080fd5b61031f7f000000000000000000000000000000000000000000000000000000000000000081565b6040519081526020015b60405180910390f35b61031f610340366004614257565b6108cf565b6103586103533660046142c3565b6109bd565b005b6103817f000000000000000000000000000000000000000000000000000000000000000081565b6040516001600160a01b039091168152602001610329565b6103586103a7366004614357565b610b39565b6103586103ba3660046143a4565b610ca4565b6103d26103cd36600461445b565b610fa0565b60408051601b9390930b835263ffffffff909116602083015201610329565b6103586103ff366004614482565b611021565b6104406040518060400160405280600b81526020017f4e616d652073657474657200000000000000000000000000000000000000000081525081565b6040516103299190614513565b6103817f000000000000000000000000000000000000000000000000000000000000000081565b610440611167565b61035861048a366004614526565b6111f5565b6104d061049d366004614579565b60009283526001602090815260408085206001600160a01b03948516865282528085209290931684525290205460ff1690565b6040519015158152602001610329565b61031f7f000000000000000000000000000000000000000000000000000000000000000081565b61031f61051536600461445b565b611329565b6104406040518060400160405280601b81526020017f57686974656c6973742065787069726174696f6e20736574746572000000000081525081565b6104406040518060400160405280601d81526020017f57686974656c6973742065787069726174696f6e20657874656e64657200000081525081565b61031f6305f5e10081565b61031f6105ab36600461468b565b61136e565b6103586105be366004614579565b61139e565b61031f7f000000000000000000000000000000000000000000000000000000000000000081565b61031f7f000000000000000000000000000000000000000000000000000000000000000081565b6103d261061f36600461445b565b611467565b61031f6106323660046146c0565b611524565b6104d06106453660046146f3565b600360209081526000928352604080842090915290825290205460ff1681565b6103586106733660046143a4565b61170e565b610358610686366004614726565b61178d565b61031f61069936600461445b565b60046020526000908152604090205481565b61031f6106b936600461468b565b611850565b6103586106cc366004614357565b611aa7565b6103817f000000000000000000000000000000000000000000000000000000000000000081565b6104d061070636600461475d565b611bd9565b6104406040518060400160405280601681526020017f496e646566696e6974652077686974656c69737465720000000000000000000081525081565b6104d061075536600461475d565b611cde565b6104d06107683660046147d7565b611e14565b61031f7f000000000000000000000000000000000000000000000000000000000000000081565b61031f6107a236600461481c565b611ecf565b6104d06107b5366004614869565b6120da565b61031f7f000000000000000000000000000000000000000000000000000000000000000081565b6108326107ef366004614869565b6000918252602082815260408084206001600160a01b0393909316845291905290205467ffffffffffffffff811691600160401b9091046001600160c01b031690565b6040805167ffffffffffffffff90931683526001600160c01b03909116602083015201610329565b61031f6108683660046149de565b6121c3565b61035861087b366004614ab0565b612708565b6104406040518060400160405280601081526020017f556e6c696d69746564207265616465720000000000000000000000000000000081525081565b61031f6108ca366004614ad2565b612959565b60006001600160a01b03831661092c5760405162461bcd60e51b815260206004820152601460248201527f4169726e6f64652061646472657373207a65726f00000000000000000000000060448201526064015b60405180910390fd5b816109795760405162461bcd60e51b815260206004820152601060248201527f54656d706c617465204944207a65726f000000000000000000000000000000006044820152606401610923565b6040516bffffffffffffffffffffffff19606085901b1660208201526034810183905260540160405160208183030381529060405280519060200120905092915050565b846109c781612b0d565b610a095760405162461bcd60e51b8152602060048201526013602482015272151a5b595cdd185b5c081b9bdd081d985b1a59606a1b6044820152606401610923565b876001600160a01b0316610a8884848080601f01602080910402602001604051908101604052809392919081815260200183838082843760009201919091525050604051610a829250610a6791508c908c908c908c90602001614b4b565b60405160208183030381529060405280519060200120612b39565b90612b74565b6001600160a01b031614610ad35760405162461bcd60e51b81526020600482015260126024820152710a6d2cedcc2e8eae4ca40dad2e6dac2e8c6d60731b6044820152606401610923565b6000610adf89896108cf565b90506000610aef82898989612b98565b60408051828152602081018b905291925083917f403078446dab7471f481ca4bffac706bd84a6dba118980d267676c096f2ba924910160405180910390a250505050505050505050565b610b4233612c9d565b610b8e5760405162461bcd60e51b815260206004820152601560248201527f43616e6e6f74207365742065787069726174696f6e00000000000000000000006044820152606401610923565b82610bcd5760405162461bcd60e51b815260206004820152600f60248201526e53657276696365204944207a65726f60881b6044820152606401610923565b6001600160a01b038216610c175760405162461bcd60e51b8152602060048201526011602482015270557365722061646472657373207a65726f60781b6044820152606401610923565b6000838152602081815260408083206001600160a01b03861684529091529020805467ffffffffffffffff191667ffffffffffffffff831617905560405167ffffffffffffffff8216815233906001600160a01b0384169085907fd19e89b7d547ccf349211588a9a1d29461e2ce984b1b1cdbe7150976528b86f1906020015b60405180910390a4505050565b84610cae81612b0d565b610cf05760405162461bcd60e51b8152602060048201526013602482015272151a5b595cdd185b5c081b9bdd081d985b1a59606a1b6044820152606401610923565b6040516bffffffffffffffffffffffff1960608b811b821660208401528a811b8216603484015289901b166048820152605c0160408051601f19818403018152918152815160209283012060008d8152600790935291205414610d955760405162461bcd60e51b815260206004820152601b60248201527f537562736372697074696f6e206e6f74207265676973746572656400000000006044820152606401610923565b876001600160a01b0316896001600160a01b03161415610e7e57886001600160a01b0316610e2e84848080601f01602080910402602001604051908101604052809392919081815260200183838082843760009201919091525050604051610a829250610a6791508f908c903390602001928352602083019190915260601b6bffffffffffffffffffffffff1916604082015260540190565b6001600160a01b031614610e795760405162461bcd60e51b81526020600482015260126024820152710a6d2cedcc2e8eae4ca40dad2e6dac2e8c6d60731b6044820152606401610923565b610f29565b886001600160a01b0316610ede84848080601f01602080910402602001604051908101604052809392919081815260200183838082843760009201919091525050604051610a829250610a6791508f908c9033908d908d90602001614b6c565b6001600160a01b031614610f295760405162461bcd60e51b81526020600482015260126024820152710a6d2cedcc2e8eae4ca40dad2e6dac2e8c6d60731b6044820152606401610923565b60008a81526004602052604081205490610f4582898989612b98565b604080518e8152601b83900b602082015263ffffffff8b1681830152905191925083917f2b85d71813342fd0091d4573a5f78e244c2133755e470943c33a6dbf3cf9c15d9181900360600190a2505050505050505050505050565b600080610fad83336120da565b610ff95760405162461bcd60e51b815260206004820152601260248201527f53656e6465722063616e6e6f74207265616400000000000000000000000000006044820152606401610923565b5050600090815260056020526040902054601b81900b91600160e01b90910463ffffffff1690565b61102a33612ddd565b6110765760405162461bcd60e51b815260206004820152601c60248201527f43616e6e6f742073657420696e646566696e69746520737461747573000000006044820152606401610923565b826110b55760405162461bcd60e51b815260206004820152600f60248201526e53657276696365204944207a65726f60881b6044820152606401610923565b6001600160a01b0382166110ff5760405162461bcd60e51b8152602060048201526011602482015270557365722061646472657373207a65726f60781b6044820152606401610923565b600061110c848484612e8e565b6040805184151581526001600160c01b038316602082015291925033916001600160a01b0386169187917f2fa93828cf3f001b9a9f0a7365db04ea068b9db7bcb7a38d289f0cf8aa9ce374910160405180910390a450505050565b6002805461117490614ba6565b80601f01602080910402602001604051908101604052809291908181526020018280546111a090614ba6565b80156111ed5780601f106111c2576101008083540402835291602001916111ed565b820191906000526020600020905b8154815290600101906020018083116111d057829003601f168201915b505050505081565b336001600160a01b037f0000000000000000000000000000000000000000000000000000000000000000161461126d5760405162461bcd60e51b815260206004820152601b60248201527f53656e646572206e6f74204169726e6f64652070726f746f636f6c00000000006044820152606401610923565b8261127781612b0d565b6112b95760405162461bcd60e51b8152602060048201526013602482015272151a5b595cdd185b5c081b9bdd081d985b1a59606a1b6044820152606401610923565b6000858152600660205260408120805490829055906112da82878787612b98565b604080518981526020810183905290810188905290915082907f7c88b543c4cda65df046e87397c3152c27098419cb22a90a5e37db30ef621b269060600160405180910390a250505050505050565b6000600860008360405160200161134291815260200190565b604051602081830303815290604052805190602001208152602001908152602001600020549050919050565b6000816040516020016113819190614bdb565b604051602081830303815290604052805190602001209050919050565b6113a781612ddd565b156113f45760405162461bcd60e51b815260206004820181905260248201527f7365747465722063616e2073657420696e646566696e697465207374617475736044820152606401610923565b600080611402858585613046565b91509150811561146057604080513381526001600160c01b03831660208201526001600160a01b03808616929087169188917f29c394c1d92801cab93215bf9cd50ae38d23341be6540f27d80ee2bc8a541237910160405180910390a45b5050505050565b60008060008360405160200161147f91815260200190565b6040516020818303038152906040528051906020012090506114a181336120da565b6114ed5760405162461bcd60e51b815260206004820152601260248201527f53656e6465722063616e6e6f74207265616400000000000000000000000000006044820152606401610923565b60009081526008602090815260408083205483526005909152902054601b81900b94600160e01b90910463ffffffff169350915050565b6000816001600160a01b03811633148061156157506001600160a01b038116600090815260036020908152604080832033845290915290205460ff165b6115ad5760405162461bcd60e51b815260206004820152601460248201527f53656e646572206e6f74207065726d69747465640000000000000000000000006044820152606401610923565b60006115b986866108cf565b6040517feebecf690000000000000000000000000000000000000000000000000000000081526001600160a01b0388811660048301526024820188905260a06044830152600060a48301528681166064830152630b7914b960e31b60848301529192507f00000000000000000000000000000000000000000000000000000000000000009091169063eebecf699060c401602060405180830381600087803b15801561166457600080fd5b505af1158015611678573d6000803e3d6000fd5b505050506040513d601f19601f8201168201806040525081019061169c9190614c1f565b60008181526006602090815260409182902084905581518381526001600160a01b038a811692820192909252918201889052919450339186169083907fc0e8c8735457dd46668d6c01832656e0803b41b1e61ba12354a24f11e114eab39060600160405180910390a450509392505050565b61171d6106b98486018661468b565b848460405161172d929190614c38565b6040518091039020146117825760405162461bcd60e51b815260206004820152601760248201527f44617461206c656e677468206e6f7420636f72726563740000000000000000006044820152606401610923565b505050505050505050565b6001600160a01b0382166117e35760405162461bcd60e51b815260206004820152601560248201527f55706461746520726571756573746572207a65726f00000000000000000000006044820152606401610923565b3360008181526003602090815260408083206001600160a01b03871680855290835292819020805460ff191686151590811790915590519081529192917fba239f737a4075f5efb0d649e16cd7d2b1978690876b079dab642f077050b27991015b60405180910390a35050565b8051600090600181116118a55760405162461bcd60e51b815260206004820152601f60248201527f537065636966696564206c657373207468616e2074776f20426561636f6e73006044820152606401610923565b60008167ffffffffffffffff8111156118c0576118c06145b5565b6040519080825280602002602001820160405280156118e9578160200160208202803683370190505b5090506000805b838110156119815760006005600088848151811061191057611910614c48565b602090810291909101810151825281019190915260400160002080548551919250601b0b9085908490811061194757611947614c48565b6020908102919091010152805461196b90600160e01b900463ffffffff1684614c74565b925050808061197990614c8c565b9150506118f0565b50600061198e8483614cbd565b90506119998661136e565b60008181526005602052604090205490955063ffffffff600160e01b90910481169082161015611a0b5760405162461bcd60e51b815260206004820152601660248201527f557064617465642076616c7565206f75746461746564000000000000000000006044820152606401610923565b6000611a1684613131565b604080518082018252601b83900b80825263ffffffff868116602080850182815260008e81526005835287902095519051909316600160e01b026001600160e01b0390931692909217909355835191825281019190915291925087917f9a2540dc41864a5c41518859ef25213f423a2e3aaadec83dcae15066d608b038910160405180910390a25050505050919050565b611ab033613299565b611afc5760405162461bcd60e51b815260206004820152601860248201527f43616e6e6f7420657874656e642065787069726174696f6e00000000000000006044820152606401610923565b82611b3b5760405162461bcd60e51b815260206004820152600f60248201526e53657276696365204944207a65726f60881b6044820152606401610923565b6001600160a01b038216611b855760405162461bcd60e51b8152602060048201526011602482015270557365722061646472657373207a65726f60781b6044820152606401610923565b611b9083838361334a565b60405167ffffffffffffffff8216815233906001600160a01b0384169085907fa9e0c89b898eb7a904617915dc5b5510d539c899810042e9248569b54b9cc2ed90602001610c97565b60003315611c295760405162461bcd60e51b815260206004820152601760248201527f53656e646572206e6f74207a65726f20616464726573730000000000000000006044820152606401610923565b6000611c378587018761468b565b90508585604051611c49929190614c38565b604051809103902081604051602001611c629190614bdb565b6040516020818303038152906040528051906020012014611cc55760405162461bcd60e51b815260206004820152601760248201527f44617461206c656e677468206e6f7420636f72726563740000000000000000006044820152606401610923565b611cd38161076886866133c7565b979650505050505050565b60003315611d2e5760405162461bcd60e51b815260206004820152601760248201527f53656e646572206e6f74207a65726f20616464726573730000000000000000006044820152606401610923565b60008681526004602052604090205480611d8a5760405162461bcd60e51b815260206004820152601b60248201527f537562736372697074696f6e206e6f74207265676973746572656400000000006044820152606401610923565b6000818152600560205260409020611da285856133c7565b8154604080516020601f8b01819004810282018101909252898152611def92601b0b91611dea91908c908c908190840183828082843760009201919091525061342592505050565b613528565b101580611e0857508054600160e01b900463ffffffff16155b98975050505050505050565b60008083604051602001611e289190614bdb565b60408051808303601f1901815282825280516020918201206000818152600583528390208484019093529154601b81900b8452600160e01b900463ffffffff16908301529150611e7785611850565b506000828152600560205260409020815181548691611e9891601b0b613528565b101580611ec55750602082015163ffffffff16158015611ec557508054600160e01b900463ffffffff1615155b9695505050505050565b6000816001600160a01b038116331480611f0c57506001600160a01b038116600090815260036020908152604080832033845290915290205460ff165b611f585760405162461bcd60e51b815260206004820152601460248201527f53656e646572206e6f74207065726d69747465640000000000000000000000006044820152606401610923565b6000611f6487876108cf565b6040517fa7e0c85e0000000000000000000000000000000000000000000000000000000081526001600160a01b0389811660048301526024820189905260c06044830152600060c483015287811660648301528681166084830152630b7914b960e31b60a48301529192507f00000000000000000000000000000000000000000000000000000000000000009091169063a7e0c85e9060e401602060405180830381600087803b15801561201757600080fd5b505af115801561202b573d6000803e3d6000fd5b505050506040513d601f19601f8201168201806040525081019061204f9190614c1f565b600081815260066020526040908190208390555190935033906001600160a01b0386169083907faeef85c84fba3ef952ca2738d951d30f5093595cb5eb9830764f5b49a39442a3906120c89088908d908c908e909384526001600160a01b03928316602085015291166040830152606082015260800190565b60405180910390a45050949350505050565b60006001600160a01b03821615806120f757506120f783836135a1565b806121bc5750604051632474521560e21b81527f000000000000000000000000000000000000000000000000000000000000000060048201526001600160a01b0383811660248301527f000000000000000000000000000000000000000000000000000000000000000016906391d148549060440160206040518083038186803b15801561218457600080fd5b505afa158015612198573d6000803e3d6000fd5b505050506040513d601f19601f820116820180604052508101906121bc9190614cd1565b9392505050565b8451845160009190811480156121d95750845181145b80156121e55750835181145b80156121f15750825181145b61223d5760405162461bcd60e51b815260206004820152601960248201527f506172616d65746572206c656e677468206d69736d61746368000000000000006044820152606401610923565b6001811161228d5760405162461bcd60e51b815260206004820152601f60248201527f537065636966696564206c657373207468616e2074776f20426561636f6e73006044820152606401610923565b60008167ffffffffffffffff8111156122a8576122a86145b5565b6040519080825280602002602001820160405280156122d1578160200160208202803683370190505b50905060008267ffffffffffffffff8111156122ef576122ef6145b5565b604051908082528060200260200182016040528015612318578160200160208202803683370190505b5090506000805b848110156125dd5786818151811061233957612339614c48565b6020026020010151516000146125225760008b828151811061235d5761235d614c48565b6020026020010151905060008a838151811061237b5761237b614c48565b6020026020010151905061238e81612b0d565b6123d05760405162461bcd60e51b8152602060048201526013602482015272151a5b595cdd185b5c081b9bdd081d985b1a59606a1b6044820152606401610923565b816001600160a01b03166124418a85815181106123ef576123ef614c48565b6020026020010151610a828f878151811061240c5761240c614c48565b6020026020010151858f898151811061242757612427614c48565b6020026020010151604051602001610a6793929190614cee565b6001600160a01b03161461248c5760405162461bcd60e51b81526020600482015260126024820152710a6d2cedcc2e8eae4ca40dad2e6dac2e8c6d60731b6044820152606401610923565b6124ae8a84815181106124a1576124a1614c48565b6020026020010151613425565b601b0b8584815181106124c3576124c3614c48565b60209081029190910101526124d88185614c74565b93506124fd828d85815181106124f0576124f0614c48565b60200260200101516108cf565b86848151811061250f5761250f614c48565b60200260200101818152505050506125cb565b60006125538c838151811061253957612539614c48565b60200260200101518c84815181106124f0576124f0614c48565b6000818152600560205260409020805486519293509091601b9190910b9086908590811061258357612583614c48565b602090810291909101015280546125a790600160e01b900463ffffffff1685614c74565b9350818684815181106125bc576125bc614c48565b60200260200101818152505050505b806125d581614c8c565b91505061231f565b506125e78361136e565b945060006125f58583614cbd565b60008781526005602052604090205490915063ffffffff600160e01b909104811690821610156126675760405162461bcd60e51b815260206004820152601660248201527f557064617465642076616c7565206f75746461746564000000000000000000006044820152606401610923565b600061267284613131565b604080518082018252601b83900b80825263ffffffff868116602080850182815260008f81526005835287902095519051909316600160e01b026001600160e01b0390931692909217909355835191825281019190915291925088917f5bdeb15108d9736d9c4850ff8b66dcefbcecfc925709009dd5328697e1a599bd910160405180910390a250505050505095945050505050565b816127555760405162461bcd60e51b815260206004820152600960248201527f4e616d65207a65726f00000000000000000000000000000000000000000000006044820152606401610923565b806127a25760405162461bcd60e51b815260206004820152601260248201527f4461746120706f696e74204944207a65726f00000000000000000000000000006044820152606401610923565b336001600160a01b037f00000000000000000000000000000000000000000000000000000000000000001614806128915750604051632474521560e21b81527f000000000000000000000000000000000000000000000000000000000000000060048201523360248201527f00000000000000000000000000000000000000000000000000000000000000006001600160a01b0316906391d148549060440160206040518083038186803b15801561285957600080fd5b505afa15801561286d573d6000803e3d6000fd5b505050506040513d601f19601f820116820180604052508101906128919190614cd1565b6128dd5760405162461bcd60e51b815260206004820152601660248201527f53656e6465722063616e6e6f7420736574206e616d65000000000000000000006044820152606401610923565b8060086000846040516020016128f591815260200190565b60405160208183030381529060405280519060200120815260200190815260200160002081905550336001600160a01b0316827fe32a87a5e724b6a39fa52c4fdadc21284bbc9a9edb486bbc554abe89fb632b138360405161184491815260200190565b60006001600160a01b0383166129b15760405162461bcd60e51b815260206004820152601460248201527f52656c617965722061646472657373207a65726f0000000000000000000000006044820152606401610923565b6001600160a01b038216612a075760405162461bcd60e51b815260206004820152601460248201527f53706f6e736f722061646472657373207a65726f0000000000000000000000006044820152606401610923565b604051612a2d90469088908890889088908890309063081ad23d60e21b90602001614d1b565b60408051601f1981840301815282825280516020918201206bffffffffffffffffffffffff1960608b811b82168487015288811b8216603487015287901b1660488501528251808503603c018152605c909401835283519382019390932060008481526007909252919020559050612aa586866108cf565b60008281526004602052604090819020919091555181907f82b139c5e690a3a4a9c2f68133d2ab1f7724bf8a69ad3fe1cd9f5a4923cf41b290612afc9089908990899089908990309063081ad23d60e21b90614daa565b60405180910390a295945050505050565b600042612b1c83610e10614c74565b118015612b335750612b3042610384614c74565b82105b92915050565b6040517f19457468657265756d205369676e6564204d6573736167653a0a3332000000006020820152603c8101829052600090605c01611381565b6000806000612b8385856135f4565b91509150612b9081613664565b509392505050565b6000612bd983838080601f01602080910402602001604051908101604052809392919081815260200183838082843760009201919091525061342592505050565b600086815260056020526040902054601b9190910b9150600160e01b900463ffffffff168411612c4b5760405162461bcd60e51b815260206004820152601d60248201527f46756c66696c6c6d656e74206f6c646572207468616e20426561636f6e0000006044820152606401610923565b604080518082018252601b83900b815263ffffffff95861660208083019182526000988952600590529190962095519051909416600160e01b026001600160e01b039094169390931790935550919050565b6000816001600160a01b03167f00000000000000000000000000000000000000000000000000000000000000006001600160a01b03161480612b335750604051632474521560e21b81527f000000000000000000000000000000000000000000000000000000000000000060048201526001600160a01b0383811660248301527f000000000000000000000000000000000000000000000000000000000000000016906391d14854906044015b60206040518083038186803b158015612d6257600080fd5b505afa158015612d76573d6000803e3d6000fd5b505050506040513d601f19601f82011682018060405250810190612b339190614cd1565b6000928352602083815260408085206001600160a01b039490941685529290529120805467ffffffffffffffff191667ffffffffffffffff909216919091179055565b6000816001600160a01b03167f00000000000000000000000000000000000000000000000000000000000000006001600160a01b03161480612b335750604051632474521560e21b81527f000000000000000000000000000000000000000000000000000000000000000060048201526001600160a01b0383811660248301527f000000000000000000000000000000000000000000000000000000000000000016906391d1485490604401612d4a565b6000838152602081815260408083206001600160a01b0386168452909152902054600160401b90046001600160c01b0316818015612ef7575060008481526001602090815260408083206001600160a01b0387168452825280832033845290915290205460ff16155b15612f845760008481526001602081815260408084206001600160a01b03881685528252808420338552909152909120805460ff1916909117905580612f3c81614e31565b6000868152602081815260408083206001600160a01b03891684529091529020805467ffffffffffffffff16600160401b6001600160c01b0384160217905591506121bc9050565b81158015612fbc575060008481526001602090815260408083206001600160a01b0387168452825280832033845290915290205460ff165b156121bc5760008481526001602090815260408083206001600160a01b038716845282528083203384529091529020805460ff1916905580612ffd81614e58565b6000868152602081815260408083206001600160a01b03891684529091529020805467ffffffffffffffff16600160401b6001600160c01b038416021790559150509392505050565b6000838152602081815260408083206001600160a01b0386811680865291845282852054888652600185528386209286529184528285209086168552909252822054600160401b9091046001600160c01b03169060ff16156131295760008581526001602090815260408083206001600160a01b03808916855290835281842090871684529091529020805460ff19169055806130e281614e58565b6000878152602081815260408083206001600160a01b038a1684529091529020805467ffffffffffffffff16600160401b6001600160c01b03841602179055600193509150505b935093915050565b8051600090600981116131f15761314783613822565b613152600282614e7b565b600114156131865782613166600283614cbd565b8151811061317657613176614c48565b6020026020010151915050919050565b6002836131938284614cbd565b815181106131a3576131a3614c48565b60200260200101518460016002856131bb9190614cbd565b6131c59190614e8f565b815181106131d5576131d5614c48565b60200260200101516131e79190614ea6565b6121bc9190614ee5565b6131fc600282614e7b565b60011415613219578261316681613214600285614cbd565b613d39565b60008061323c85600161322d600287614cbd565b6132379190614e8f565b613d57565b91509150600285828151811061325457613254614c48565b602002602001015186848151811061326e5761326e614c48565b60200260200101516132809190614ea6565b61328a9190614ee5565b95945050505050565b50919050565b6000816001600160a01b03167f00000000000000000000000000000000000000000000000000000000000000006001600160a01b03161480612b335750604051632474521560e21b81527f000000000000000000000000000000000000000000000000000000000000000060048201526001600160a01b0383811660248301527f000000000000000000000000000000000000000000000000000000000000000016906391d1485490604401612d4a565b6000838152602081815260408083206001600160a01b038616845290915290205467ffffffffffffffff90811690821611612d9a5760405162461bcd60e51b815260206004820152601a60248201527f446f6573206e6f7420657874656e642065787069726174696f6e0000000000006044820152606401610923565b6000602082146134195760405162461bcd60e51b815260206004820152601a60248201527f496e636f727265637420706172616d65746572206c656e6774680000000000006044820152606401610923565b6121bc8284018461445b565b600081516020146134785760405162461bcd60e51b815260206004820152601760248201527f44617461206c656e677468206e6f7420636f72726563740000000000000000006044820152606401610923565b60008280602001905181019061348e9190614c1f565b90507fffffffff8000000000000000000000000000000000000000000000000000000081128015906134dc57507b7fffffffffffffffffffffffffffffffffffffffffffffffffffffff8113155b612b335760405162461bcd60e51b815260206004820152601760248201527f56616c7565207479706563617374696e67206572726f720000000000000000006044820152606401610923565b60008083601b0b83601b0b61353d9190614f13565b905060008082136135565761355182614f52565b613558565b815b905060008086601b0b136135785785601b0b61357390614f52565b61357d565b85601b0b5b905080613588575060015b806135976305f5e10084614f6f565b611ec59190614cbd565b6000828152602081815260408083206001600160a01b038516845290915281208054600160401b90046001600160c01b03161515806135ec575080544267ffffffffffffffff909116115b949350505050565b60008082516041141561362b5760208301516040840151606085015160001a61361f87828585613dd3565b9450945050505061365d565b825160401415613655576020830151604084015161364a868383613ec0565b93509350505061365d565b506000905060025b9250929050565b600081600481111561367857613678614f8e565b14156136815750565b600181600481111561369557613695614f8e565b14156136e35760405162461bcd60e51b815260206004820152601860248201527f45434453413a20696e76616c6964207369676e617475726500000000000000006044820152606401610923565b60028160048111156136f7576136f7614f8e565b14156137455760405162461bcd60e51b815260206004820152601f60248201527f45434453413a20696e76616c6964207369676e6174757265206c656e677468006044820152606401610923565b600381600481111561375957613759614f8e565b14156137b25760405162461bcd60e51b815260206004820152602260248201527f45434453413a20696e76616c6964207369676e6174757265202773272076616c604482015261756560f01b6064820152608401610923565b60048160048111156137c6576137c6614f8e565b141561381f5760405162461bcd60e51b815260206004820152602260248201527f45434453413a20696e76616c6964207369676e6174757265202776272076616c604482015261756560f01b6064820152608401610923565b50565b805160098111156138755760405162461bcd60e51b815260206004820152601660248201527f417272617920746f6f206c6f6e6720746f20736f7274000000000000000000006044820152606401610923565b60068110156139835760048110156138d15780600314156138bb5761389d8260006001613ef9565b6138aa8260016002613ef9565b6138b78260006001613ef9565b5050565b80600214156138b7576138b78260006001613ef9565b806005141561394f576138e78260016002613ef9565b6138f48260036004613ef9565b6139018260016003613ef9565b61390e8260006002613ef9565b61391b8260026004613ef9565b6139288260006003613ef9565b6139358260006001613ef9565b6139428260026003613ef9565b6138b78260016002613ef9565b61395c8260006001613ef9565b6139698260026003613ef9565b6139768260016003613ef9565b6139428260006002613ef9565b6008811015613b01578060071415613a65576139a28260016002613ef9565b6139af8260036004613ef9565b6139bc8260056006613ef9565b6139c98260006002613ef9565b6139d68260046006613ef9565b6139e38260036005613ef9565b6139f08260026006613ef9565b6139fd8260016005613ef9565b613a0a8260006004613ef9565b613a178260026005613ef9565b613a248260006003613ef9565b613a318260026004613ef9565b613a3e8260016003613ef9565b613a4b8260006001613ef9565b613a588260026003613ef9565b6138b78260046005613ef9565b613a728260006001613ef9565b613a7f8260026003613ef9565b613a8c8260046005613ef9565b613a998260016003613ef9565b613aa68260036005613ef9565b613ab38260016003613ef9565b613ac08260026004613ef9565b613acd8260006002613ef9565b613ada8260026004613ef9565b613ae78260036004613ef9565b613af48260016002613ef9565b6138b78260026003613ef9565b8060091415613c3557613b178260016008613ef9565b613b248260026007613ef9565b613b318260036006613ef9565b613b3e8260046005613ef9565b613b4b8260016004613ef9565b613b588260056008613ef9565b613b658260006002613ef9565b613b728260066007613ef9565b613b7f8260026006613ef9565b613b8c8260076008613ef9565b613b998260006003613ef9565b613ba68260046005613ef9565b613bb38260006001613ef9565b613bc08260036005613ef9565b613bcd8260066007613ef9565b613bda8260026004613ef9565b613be78260016003613ef9565b613bf48260056007613ef9565b613c018260046006613ef9565b613c0e8260016002613ef9565b613c1b8260036004613ef9565b613c288260056006613ef9565b613a4b8260076008613ef9565b613c428260006007613ef9565b613c4f8260016006613ef9565b613c5c8260026005613ef9565b613c698260036004613ef9565b613c768260006003613ef9565b613c838260046007613ef9565b613c908260016002613ef9565b613c9d8260056006613ef9565b613caa8260006001613ef9565b613cb78260026003613ef9565b613cc48260046005613ef9565b613cd18260066007613ef9565b613cde8260036005613ef9565b613ceb8260026004613ef9565b613cf88260016002613ef9565b613d058260036004613ef9565b613d128260056006613ef9565b613d1f8260026003613ef9565b613d2c8260046005613ef9565b6138b78260036004613ef9565b6000612b9083600060018651613d4f9190614e8f565b856000613fa7565b8151600090819060018111613dae5760405162461bcd60e51b815260206004820152601d60248201527f417272617920746f6f2073686f727420746f2073656c656374206b2b310000006044820152606401610923565b613dc7856000613dbf600185614e8f565b876001613fa7565b92509250509250929050565b6000807f7fffffffffffffffffffffffffffffff5d576e7357a4501ddfe92f46681b20a0831115613e0a5750600090506003613eb7565b8460ff16601b14158015613e2257508460ff16601c14155b15613e335750600090506004613eb7565b6040805160008082526020820180845289905260ff881692820192909252606081018690526080810185905260019060a0016020604051602081039080840390855afa158015613e87573d6000803e3d6000fd5b5050604051601f1901519150506001600160a01b038116613eb057600060019250925050613eb7565b9150600090505b94509492505050565b6000806001600160ff1b03831681613edd60ff86901c601b614c74565b9050613eeb87828885613dd3565b935093505050935093915050565b828181518110613f0b57613f0b614c48565b6020026020010151838381518110613f2557613f25614c48565b60200260200101511315613fa257828181518110613f4557613f45614c48565b6020026020010151838381518110613f5f57613f5f614c48565b6020026020010151848481518110613f7957613f79614c48565b60200260200101858481518110613f9257613f92614c48565b6020908102919091010191909152525b505050565b60008084861415613fbd57508290506000614098565b6000613fca8888886140a2565b905080851015613ff457613fec8888613fe4600185614e8f565b886000613fa7565b509250614018565b8085111561401457613fec8861400b836001614c74565b88886000613fa7565b8092505b831561409657614029836001614c74565b91506000614038836001614c74565b90505b88518110156140945788838151811061405657614056614c48565b602002602001015189828151811061407057614070614c48565b60200260200101511215614082578092505b8061408c81614c8c565b91505061403b565b505b505b9550959350505050565b6000818314156140b35750816121bc565b60008484815181106140c7576140c7614c48565b60209081029190910101519050836140e0846001614c74565b92505b806140ed81614c8c565b91505085518110801561411857508186828151811061410e5761410e614c48565b6020026020010151125b6140e3575b8261412781614fa4565b9350508186848151811061413d5761413d614c48565b60200260200101511361411d578281106141c85785838151811061416357614163614c48565b602002602001015186868151811061417d5761417d614c48565b602002602001015187878151811061419757614197614c48565b602002602001018886815181106141b0576141b0614c48565b602002602001018281525082815250505050506121bc565b8583815181106141da576141da614c48565b60200260200101518682815181106141f4576141f4614c48565b602002602001015187838151811061420e5761420e614c48565b6020026020010188868151811061422757614227614c48565b6020908102919091010191909152526140e3565b80356001600160a01b038116811461425257600080fd5b919050565b6000806040838503121561426a57600080fd5b6142738361423b565b946020939093013593505050565b60008083601f84011261429357600080fd5b50813567ffffffffffffffff8111156142ab57600080fd5b60208301915083602082850101111561365d57600080fd5b600080600080600080600060a0888a0312156142de57600080fd5b6142e78861423b565b96506020880135955060408801359450606088013567ffffffffffffffff8082111561431257600080fd5b61431e8b838c01614281565b909650945060808a013591508082111561433757600080fd5b506143448a828b01614281565b989b979a50959850939692959293505050565b60008060006060848603121561436c57600080fd5b8335925061437c6020850161423b565b9150604084013567ffffffffffffffff8116811461439957600080fd5b809150509250925092565b600080600080600080600080600060e08a8c0312156143c257600080fd5b893598506143d260208b0161423b565b97506143e060408b0161423b565b96506143ee60608b0161423b565b955060808a0135945060a08a013567ffffffffffffffff8082111561441257600080fd5b61441e8d838e01614281565b909650945060c08c013591508082111561443757600080fd5b506144448c828d01614281565b915080935050809150509295985092959850929598565b60006020828403121561446d57600080fd5b5035919050565b801515811461381f57600080fd5b60008060006060848603121561449757600080fd5b833592506144a76020850161423b565b9150604084013561439981614474565b60005b838110156144d25781810151838201526020016144ba565b838111156144e1576000848401525b50505050565b600081518084526144ff8160208601602086016144b7565b601f01601f19169290920160200192915050565b6020815260006121bc60208301846144e7565b6000806000806060858703121561453c57600080fd5b8435935060208501359250604085013567ffffffffffffffff81111561456157600080fd5b61456d87828801614281565b95989497509550505050565b60008060006060848603121561458e57600080fd5b8335925061459e6020850161423b565b91506145ac6040850161423b565b90509250925092565b634e487b7160e01b600052604160045260246000fd5b604051601f8201601f1916810167ffffffffffffffff811182821017156145f4576145f46145b5565b604052919050565b600067ffffffffffffffff821115614616576146166145b5565b5060051b60200190565b600082601f83011261463157600080fd5b81356020614646614641836145fc565b6145cb565b82815260059290921b8401810191818101908684111561466557600080fd5b8286015b848110156146805780358352918301918301614669565b509695505050505050565b60006020828403121561469d57600080fd5b813567ffffffffffffffff8111156146b457600080fd5b6135ec84828501614620565b6000806000606084860312156146d557600080fd5b6146de8461423b565b9250602084013591506145ac6040850161423b565b6000806040838503121561470657600080fd5b61470f8361423b565b915061471d6020840161423b565b90509250929050565b6000806040838503121561473957600080fd5b6147428361423b565b9150602083013561475281614474565b809150509250929050565b60008060008060006060868803121561477557600080fd5b85359450602086013567ffffffffffffffff8082111561479457600080fd5b6147a089838a01614281565b909650945060408801359150808211156147b957600080fd5b506147c688828901614281565b969995985093965092949392505050565b600080604083850312156147ea57600080fd5b823567ffffffffffffffff81111561480157600080fd5b61480d85828601614620565b95602094909401359450505050565b6000806000806080858703121561483257600080fd5b61483b8561423b565b9350602085013592506148506040860161423b565b915061485e6060860161423b565b905092959194509250565b6000806040838503121561487c57600080fd5b8235915061471d6020840161423b565b600082601f83011261489d57600080fd5b813560206148ad614641836145fc565b82815260059290921b840181019181810190868411156148cc57600080fd5b8286015b84811015614680576148e18161423b565b83529183019183016148d0565b600082601f8301126148ff57600080fd5b813567ffffffffffffffff811115614919576149196145b5565b61492c601f8201601f19166020016145cb565b81815284602083860101111561494157600080fd5b816020850160208301376000918101602001919091529392505050565b600082601f83011261496f57600080fd5b8135602061497f614641836145fc565b82815260059290921b8401810191818101908684111561499e57600080fd5b8286015b8481101561468057803567ffffffffffffffff8111156149c25760008081fd5b6149d08986838b01016148ee565b8452509183019183016149a2565b600080600080600060a086880312156149f657600080fd5b853567ffffffffffffffff80821115614a0e57600080fd5b614a1a89838a0161488c565b96506020880135915080821115614a3057600080fd5b614a3c89838a01614620565b95506040880135915080821115614a5257600080fd5b614a5e89838a01614620565b94506060880135915080821115614a7457600080fd5b614a8089838a0161495e565b93506080880135915080821115614a9657600080fd5b50614aa38882890161495e565b9150509295509295909350565b60008060408385031215614ac357600080fd5b50508035926020909101359150565b600080600080600060a08688031215614aea57600080fd5b614af38661423b565b945060208601359350604086013567ffffffffffffffff811115614b1657600080fd5b614b22888289016148ee565b935050614b316060870161423b565b9150614b3f6080870161423b565b90509295509295909350565b84815283602082015281836040830137600091016040019081529392505050565b8581528460208201526bffffffffffffffffffffffff198460601b1660408201528183605483013760009101605401908152949350505050565b600181811c90821680614bba57607f821691505b6020821081141561329357634e487b7160e01b600052602260045260246000fd5b6020808252825182820181905260009190848201906040850190845b81811015614c1357835183529284019291840191600101614bf7565b50909695505050505050565b600060208284031215614c3157600080fd5b5051919050565b8183823760009101908152919050565b634e487b7160e01b600052603260045260246000fd5b634e487b7160e01b600052601160045260246000fd5b60008219821115614c8757614c87614c5e565b500190565b6000600019821415614ca057614ca0614c5e565b5060010190565b634e487b7160e01b600052601260045260246000fd5b600082614ccc57614ccc614ca7565b500490565b600060208284031215614ce357600080fd5b81516121bc81614474565b83815282602082015260008251614d0c8160408501602087016144b7565b91909101604001949350505050565b60006101208a83526001600160a01b03808b1660208501528960408501528160608501526000828501526101409150816080850152614d5c8285018a6144e7565b97811660a085015295861660c084015250509190921660e08201527fffffffff0000000000000000000000000000000000000000000000000000000090911661010090910152949350505050565b60006101006001600160a01b03808b1684528960208501528160408501526000828501526101209150816060850152614de58285018a6144e7565b978116608085015295861660a084015250509190921660c08201527fffffffff0000000000000000000000000000000000000000000000000000000090911660e0909101529392505050565b60006001600160c01b0380831681811415614e4e57614e4e614c5e565b6001019392505050565b60006001600160c01b03821680614e7157614e71614c5e565b6000190192915050565b600082614e8a57614e8a614ca7565b500690565b600082821015614ea157614ea1614c5e565b500390565b6000808212826001600160ff1b0303841381151615614ec757614ec7614c5e565b82600160ff1b038412811615614edf57614edf614c5e565b50500190565b600082614ef457614ef4614ca7565b600160ff1b821460001984141615614f0e57614f0e614c5e565b500590565b600080831283600160ff1b01831281151615614f3157614f31614c5e565b836001600160ff1b03018313811615614f4c57614f4c614c5e565b50500390565b6000600160ff1b821415614f6857614f68614c5e565b5060000390565b6000816000190483118215151615614f8957614f89614c5e565b500290565b634e487b7160e01b600052602160045260246000fd5b600081614fb357614fb3614c5e565b50600019019056fea26469706673582212201a8591d423ff52e2bf70fbfcbd1a18169012c020cdcca59a9831d830cd71b43c64736f6c63430008090033",
  "linkReferences": {},
  "deployedLinkReferences": {}
}