{
  "_format": "hh-sol-artifact-1",
  "contractName": "RrpBeaconServer",
  "sourceName": "contracts/rrp/requesters/RrpBeaconServer.sol",
  "abi": [
    {
      "inputs": [
        {
          "internalType": "address",
          "name": "_accessControlRegistry",
          "type": "address"
        },
        {
          "internalType": "string",
          "name": "_adminRoleDescription",
          "type": "string"
        },
        {
          "internalType": "address",
          "name": "_manager",
          "type": "address"
        },
        {
          "internalType": "address",
          "name": "_airnodeRrp",
          "type": "address"
        }
      ],
      "stateMutability": "nonpayable",
      "type": "constructor"
    },
    {
      "anonymous": false,
      "inputs": [
        {
          "indexed": true,
          "internalType": "bytes32",
          "name": "templateId",
          "type": "bytes32"
        },
        {
          "indexed": true,
          "internalType": "address",
          "name": "reader",
          "type": "address"
        },
        {
          "indexed": true,
          "internalType": "address",
          "name": "sender",
          "type": "address"
        },
        {
          "indexed": false,
          "internalType": "uint256",
          "name": "expiration",
          "type": "uint256"
        }
      ],
      "name": "ExtendedWhitelistExpiration",
      "type": "event"
    },
    {
      "anonymous": false,
      "inputs": [
        {
          "indexed": true,
          "internalType": "bytes32",
          "name": "templateId",
          "type": "bytes32"
        },
        {
          "indexed": true,
          "internalType": "address",
          "name": "sponsor",
          "type": "address"
        },
        {
          "indexed": true,
          "internalType": "address",
          "name": "requester",
          "type": "address"
        },
        {
          "indexed": false,
          "internalType": "bytes32",
          "name": "requestId",
          "type": "bytes32"
        },
        {
          "indexed": false,
          "internalType": "address",
          "name": "sponsorWallet",
          "type": "address"
        }
      ],
      "name": "RequestedBeaconUpdate",
      "type": "event"
    },
    {
      "anonymous": false,
      "inputs": [
        {
          "indexed": true,
          "internalType": "bytes32",
          "name": "templateId",
          "type": "bytes32"
        },
        {
          "indexed": true,
          "internalType": "address",
          "name": "reader",
          "type": "address"
        },
        {
          "indexed": true,
          "internalType": "address",
          "name": "setter",
          "type": "address"
        },
        {
          "indexed": false,
          "internalType": "address",
          "name": "sender",
          "type": "address"
        },
        {
          "indexed": false,
          "internalType": "uint192",
          "name": "indefiniteWhitelistCount",
          "type": "uint192"
        }
      ],
      "name": "RevokedIndefiniteWhitelistStatus",
      "type": "event"
    },
    {
      "anonymous": false,
      "inputs": [
        {
          "indexed": true,
          "internalType": "bytes32",
          "name": "templateId",
          "type": "bytes32"
        },
        {
          "indexed": true,
          "internalType": "address",
          "name": "reader",
          "type": "address"
        },
        {
          "indexed": true,
          "internalType": "address",
          "name": "sender",
          "type": "address"
        },
        {
          "indexed": false,
          "internalType": "bool",
          "name": "status",
          "type": "bool"
        },
        {
          "indexed": false,
          "internalType": "uint192",
          "name": "indefiniteWhitelistCount",
          "type": "uint192"
        }
      ],
      "name": "SetIndefiniteWhitelistStatus",
      "type": "event"
    },
    {
      "anonymous": false,
      "inputs": [
        {
          "indexed": true,
          "internalType": "address",
          "name": "sponsor",
          "type": "address"
        },
        {
          "indexed": true,
          "internalType": "address",
          "name": "updateRequester",
          "type": "address"
        },
        {
          "indexed": false,
          "internalType": "bool",
          "name": "status",
          "type": "bool"
        }
      ],
      "name": "SetUpdatePermissionStatus",
      "type": "event"
    },
    {
      "anonymous": false,
      "inputs": [
        {
          "indexed": true,
          "internalType": "bytes32",
          "name": "templateId",
          "type": "bytes32"
        },
        {
          "indexed": true,
          "internalType": "address",
          "name": "reader",
          "type": "address"
        },
        {
          "indexed": true,
          "internalType": "address",
          "name": "sender",
          "type": "address"
        },
        {
          "indexed": false,
          "internalType": "uint256",
          "name": "expiration",
          "type": "uint256"
        }
      ],
      "name": "SetWhitelistExpiration",
      "type": "event"
    },
    {
      "anonymous": false,
      "inputs": [
        {
          "indexed": true,
          "internalType": "bytes32",
          "name": "templateId",
          "type": "bytes32"
        },
        {
          "indexed": false,
          "internalType": "bytes32",
          "name": "requestId",
          "type": "bytes32"
        },
        {
          "indexed": false,
          "internalType": "int224",
          "name": "value",
          "type": "int224"
        },
        {
          "indexed": false,
          "internalType": "uint32",
          "name": "timestamp",
          "type": "uint32"
        }
      ],
      "name": "UpdatedBeacon",
      "type": "event"
    },
    {
      "inputs": [],
      "name": "INDEFINITE_WHITELISTER_ROLE_DESCRIPTION",
      "outputs": [
        {
          "internalType": "string",
          "name": "",
          "type": "string"
        }
      ],
      "stateMutability": "view",
      "type": "function"
    },
    {
      "inputs": [],
      "name": "WHITELIST_EXPIRATION_EXTENDER_ROLE_DESCRIPTION",
      "outputs": [
        {
          "internalType": "string",
          "name": "",
          "type": "string"
        }
      ],
      "stateMutability": "view",
      "type": "function"
    },
    {
      "inputs": [],
      "name": "WHITELIST_EXPIRATION_SETTER_ROLE_DESCRIPTION",
      "outputs": [
        {
          "internalType": "string",
          "name": "",
          "type": "string"
        }
      ],
      "stateMutability": "view",
      "type": "function"
    },
    {
      "inputs": [],
      "name": "accessControlRegistry",
      "outputs": [
        {
          "internalType": "address",
          "name": "",
          "type": "address"
        }
      ],
      "stateMutability": "view",
      "type": "function"
    },
    {
      "inputs": [],
      "name": "adminRole",
      "outputs": [
        {
          "internalType": "bytes32",
          "name": "",
          "type": "bytes32"
        }
      ],
      "stateMutability": "view",
      "type": "function"
    },
    {
      "inputs": [],
      "name": "adminRoleDescription",
      "outputs": [
        {
          "internalType": "string",
          "name": "",
          "type": "string"
        }
      ],
      "stateMutability": "view",
      "type": "function"
    },
    {
      "inputs": [],
      "name": "airnodeRrp",
      "outputs": [
        {
          "internalType": "contract IAirnodeRrp",
          "name": "",
          "type": "address"
        }
      ],
      "stateMutability": "view",
      "type": "function"
    },
    {
      "inputs": [
        {
          "internalType": "bytes32",
          "name": "templateId",
          "type": "bytes32"
        },
        {
          "internalType": "address",
          "name": "reader",
          "type": "address"
        },
        {
          "internalType": "uint64",
          "name": "expirationTimestamp",
          "type": "uint64"
        }
      ],
      "name": "extendWhitelistExpiration",
      "outputs": [],
      "stateMutability": "nonpayable",
      "type": "function"
    },
    {
      "inputs": [
        {
          "internalType": "bytes32",
          "name": "requestId",
          "type": "bytes32"
        },
        {
          "internalType": "bytes",
          "name": "data",
          "type": "bytes"
        }
      ],
      "name": "fulfill",
      "outputs": [],
      "stateMutability": "nonpayable",
      "type": "function"
    },
    {
      "inputs": [],
      "name": "indefiniteWhitelisterRole",
      "outputs": [
        {
          "internalType": "bytes32",
          "name": "",
          "type": "bytes32"
        }
      ],
      "stateMutability": "view",
      "type": "function"
    },
    {
      "inputs": [],
      "name": "manager",
      "outputs": [
        {
          "internalType": "address",
          "name": "",
          "type": "address"
        }
      ],
      "stateMutability": "view",
      "type": "function"
    },
    {
      "inputs": [
        {
          "internalType": "bytes32",
          "name": "templateId",
          "type": "bytes32"
        }
      ],
      "name": "readBeacon",
      "outputs": [
        {
          "internalType": "int224",
          "name": "value",
          "type": "int224"
        },
        {
          "internalType": "uint32",
          "name": "timestamp",
          "type": "uint32"
        }
      ],
      "stateMutability": "view",
      "type": "function"
    },
    {
      "inputs": [
        {
          "internalType": "bytes32",
          "name": "templateId",
          "type": "bytes32"
        },
        {
          "internalType": "address",
          "name": "reader",
          "type": "address"
        }
      ],
      "name": "readerCanReadBeacon",
      "outputs": [
        {
          "internalType": "bool",
          "name": "",
          "type": "bool"
        }
      ],
      "stateMutability": "view",
      "type": "function"
    },
    {
      "inputs": [
        {
          "internalType": "bytes32",
          "name": "templateId",
          "type": "bytes32"
        },
        {
          "internalType": "address",
          "name": "sponsor",
          "type": "address"
        },
        {
          "internalType": "address",
          "name": "sponsorWallet",
          "type": "address"
        }
      ],
      "name": "requestBeaconUpdate",
      "outputs": [],
      "stateMutability": "nonpayable",
      "type": "function"
    },
    {
      "inputs": [
        {
          "internalType": "bytes32",
          "name": "templateId",
          "type": "bytes32"
        },
        {
          "internalType": "address",
          "name": "reader",
          "type": "address"
        },
        {
          "internalType": "address",
          "name": "setter",
          "type": "address"
        }
      ],
      "name": "revokeIndefiniteWhitelistStatus",
      "outputs": [],
      "stateMutability": "nonpayable",
      "type": "function"
    },
    {
      "inputs": [
        {
          "internalType": "bytes32",
          "name": "templateId",
          "type": "bytes32"
        },
        {
          "internalType": "address",
          "name": "reader",
          "type": "address"
        },
        {
          "internalType": "bool",
          "name": "status",
          "type": "bool"
        }
      ],
      "name": "setIndefiniteWhitelistStatus",
      "outputs": [],
      "stateMutability": "nonpayable",
      "type": "function"
    },
    {
      "inputs": [
        {
          "internalType": "address",
          "name": "updateRequester",
          "type": "address"
        },
        {
          "internalType": "bool",
          "name": "status",
          "type": "bool"
        }
      ],
      "name": "setUpdatePermissionStatus",
      "outputs": [],
      "stateMutability": "nonpayable",
      "type": "function"
    },
    {
      "inputs": [
        {
          "internalType": "bytes32",
          "name": "templateId",
          "type": "bytes32"
        },
        {
          "internalType": "address",
          "name": "reader",
          "type": "address"
        },
        {
          "internalType": "uint64",
          "name": "expirationTimestamp",
          "type": "uint64"
        }
      ],
      "name": "setWhitelistExpiration",
      "outputs": [],
      "stateMutability": "nonpayable",
      "type": "function"
    },
    {
      "inputs": [
        {
          "internalType": "address",
          "name": "",
          "type": "address"
        },
        {
          "internalType": "address",
          "name": "",
          "type": "address"
        }
      ],
      "name": "sponsorToUpdateRequesterToPermissionStatus",
      "outputs": [
        {
          "internalType": "bool",
          "name": "",
          "type": "bool"
        }
      ],
      "stateMutability": "view",
      "type": "function"
    },
    {
      "inputs": [
        {
          "internalType": "bytes32",
          "name": "templateId",
          "type": "bytes32"
        },
        {
          "internalType": "address",
          "name": "reader",
          "type": "address"
        },
        {
          "internalType": "address",
          "name": "setter",
          "type": "address"
        }
      ],
      "name": "templateIdToReaderToSetterToIndefiniteWhitelistStatus",
      "outputs": [
        {
          "internalType": "bool",
          "name": "indefiniteWhitelistStatus",
          "type": "bool"
        }
      ],
      "stateMutability": "view",
      "type": "function"
    },
    {
      "inputs": [
        {
          "internalType": "bytes32",
          "name": "templateId",
          "type": "bytes32"
        },
        {
          "internalType": "address",
          "name": "reader",
          "type": "address"
        }
      ],
      "name": "templateIdToReaderToWhitelistStatus",
      "outputs": [
        {
          "internalType": "uint64",
          "name": "expirationTimestamp",
          "type": "uint64"
        },
        {
          "internalType": "uint192",
          "name": "indefiniteWhitelistCount",
          "type": "uint192"
        }
      ],
      "stateMutability": "view",
      "type": "function"
    },
    {
      "inputs": [],
      "name": "whitelistExpirationExtenderRole",
      "outputs": [
        {
          "internalType": "bytes32",
          "name": "",
          "type": "bytes32"
        }
      ],
      "stateMutability": "view",
      "type": "function"
    },
    {
      "inputs": [],
      "name": "whitelistExpirationSetterRole",
      "outputs": [
        {
          "internalType": "bytes32",
          "name": "",
          "type": "bytes32"
        }
      ],
      "stateMutability": "view",
      "type": "function"
    }
  ],
  "bytecode": "0x6101606040523480156200001257600080fd5b5060405162003f7438038062003f74833981810160405281019062000038919062000814565b80848484828281600073ffffffffffffffffffffffffffffffffffffffff168173ffffffffffffffffffffffffffffffffffffffff161415620000b2576040517f08c379a0000000000000000000000000000000000000000000000000000000008152600401620000a99062000906565b60405180910390fd5b8073ffffffffffffffffffffffffffffffffffffffff1660808173ffffffffffffffffffffffffffffffffffffffff16815250505060008151116200012e576040517f08c379a0000000000000000000000000000000000000000000000000000000008152600401620001259062000978565b60405180910390fd5b80600290805190602001906200014692919062000562565b50806040516020016200015a9190620009e7565b604051602081830303815290604052805190602001206003819055505050600073ffffffffffffffffffffffffffffffffffffffff168173ffffffffffffffffffffffffffffffffffffffff161415620001eb576040517f08c379a0000000000000000000000000000000000000000000000000000000008152600401620001e29062000a50565b60405180910390fd5b8073ffffffffffffffffffffffffffffffffffffffff1660a08173ffffffffffffffffffffffffffffffffffffffff168152505062000230816200033660201b60201c565b60c0818152505062000248816200036360201b60201c565b60e081815250506200026081620003eb60201b60201c565b610100818152505062000279816200047360201b60201c565b61012081815250505050508073ffffffffffffffffffffffffffffffffffffffff166101408173ffffffffffffffffffffffffffffffffffffffff16815250508073ffffffffffffffffffffffffffffffffffffffff1663addf027c3060016040518363ffffffff1660e01b8152600401620002f792919062000aa0565b600060405180830381600087803b1580156200031257600080fd5b505af115801562000327573d6000803e3d6000fd5b50505050505050505062000bfe565b60006200035c6200034d83620004fb60201b60201c565b6003546200052d60201b60201c565b9050919050565b6000620003e46200037a836200033660201b60201c565b6040518060400160405280601d81526020017f57686974656c6973742065787069726174696f6e20657874656e646572000000815250604051602001620003c29190620009e7565b604051602081830303815290604052805190602001206200052d60201b60201c565b9050919050565b60006200046c62000402836200033660201b60201c565b6040518060400160405280601b81526020017f57686974656c6973742065787069726174696f6e2073657474657200000000008152506040516020016200044a9190620009e7565b604051602081830303815290604052805190602001206200052d60201b60201c565b9050919050565b6000620004f46200048a836200033660201b60201c565b6040518060400160405280601681526020017f496e646566696e6974652077686974656c697374657200000000000000000000815250604051602001620004d29190620009e7565b604051602081830303815290604052805190602001206200052d60201b60201c565b9050919050565b60008160405160200162000510919062000b1d565b604051602081830303815290604052805190602001209050919050565b600082826040516020016200054492919062000b69565b60405160208183030381529060405280519060200120905092915050565b828054620005709062000bc8565b90600052602060002090601f016020900481019282620005945760008555620005e0565b82601f10620005af57805160ff1916838001178555620005e0565b82800160010185558215620005e0579182015b82811115620005df578251825591602001919060010190620005c2565b5b509050620005ef9190620005f3565b5090565b5b808211156200060e576000816000905550600101620005f4565b5090565b6000604051905090565b600080fd5b600080fd5b600073ffffffffffffffffffffffffffffffffffffffff82169050919050565b6000620006538262000626565b9050919050565b620006658162000646565b81146200067157600080fd5b50565b60008151905062000685816200065a565b92915050565b600080fd5b600080fd5b6000601f19601f8301169050919050565b7f4e487b7100000000000000000000000000000000000000000000000000000000600052604160045260246000fd5b620006e08262000695565b810181811067ffffffffffffffff82111715620007025762000701620006a6565b5b80604052505050565b60006200071762000612565b9050620007258282620006d5565b919050565b600067ffffffffffffffff821115620007485762000747620006a6565b5b620007538262000695565b9050602081019050919050565b60005b838110156200078057808201518184015260208101905062000763565b8381111562000790576000848401525b50505050565b6000620007ad620007a7846200072a565b6200070b565b905082815260208101848484011115620007cc57620007cb62000690565b5b620007d984828562000760565b509392505050565b600082601f830112620007f957620007f86200068b565b5b81516200080b84826020860162000796565b91505092915050565b600080600080608085870312156200083157620008306200061c565b5b6000620008418782880162000674565b945050602085015167ffffffffffffffff81111562000865576200086462000621565b5b6200087387828801620007e1565b9350506040620008868782880162000674565b9250506060620008998782880162000674565b91505092959194509250565b600082825260208201905092915050565b7f4143522061646472657373207a65726f00000000000000000000000000000000600082015250565b6000620008ee601083620008a5565b9150620008fb82620008b6565b602082019050919050565b600060208201905081810360008301526200092181620008df565b9050919050565b7f41646d696e20726f6c65206465736372697074696f6e20656d70747900000000600082015250565b600062000960601c83620008a5565b91506200096d8262000928565b602082019050919050565b60006020820190508181036000830152620009938162000951565b9050919050565b600081519050919050565b600081905092915050565b6000620009bd826200099a565b620009c98185620009a5565b9350620009db81856020860162000760565b80840191505092915050565b6000620009f58284620009b0565b915081905092915050565b7f4d616e616765722061646472657373207a65726f000000000000000000000000600082015250565b600062000a38601483620008a5565b915062000a458262000a00565b602082019050919050565b6000602082019050818103600083015262000a6b8162000a29565b9050919050565b62000a7d8162000646565b82525050565b60008115159050919050565b62000a9a8162000a83565b82525050565b600060408201905062000ab7600083018562000a72565b62000ac6602083018462000a8f565b9392505050565b60008160601b9050919050565b600062000ae78262000acd565b9050919050565b600062000afb8262000ada565b9050919050565b62000b1762000b118262000646565b62000aee565b82525050565b600062000b2b828462000b02565b60148201915081905092915050565b6000819050919050565b6000819050919050565b62000b6362000b5d8262000b3a565b62000b44565b82525050565b600062000b77828562000b4e565b60208201915062000b89828462000b4e565b6020820191508190509392505050565b7f4e487b7100000000000000000000000000000000000000000000000000000000600052602260045260246000fd5b6000600282049050600182168062000be157607f821691505b6020821081141562000bf85762000bf762000b99565b5b50919050565b60805160a05160c05160e0516101005161012051610140516132c062000cb46000396000818161047c015281816109b701528181610aac01528181610ed601526110dc0152600081816112da0152611775015260008181610de701526115cd015260008181610d940152611f8b015260006104530152600081816107ed01528181611553015281816116fb0152611f110152600081816105b201528181611591015281816117390152611f4f01526132c06000f3fe608060405234801561001057600080fd5b506004361061014c5760003560e01c806371bab666116100c3578063a5c7df281161007c578063a5c7df2814610390578063a6b1b9a2146103ac578063b80218c4146103c8578063d55a42dd146103f9578063e18de85714610417578063e7f14431146104355761014c565b806371bab666146102ce578063776bcbd2146102ec5780637c1de7e1146103085780637c7067381461032457806388961a69146103425780638fe47dd8146103725761014c565b80633376e7c2116101155780633376e7c21461020a578063481c6a75146102265780634c8f1d8d146102445780634e3ec240146102625780636bd2bdd0146102925780636db798f9146102b05761014c565b80629f2f3c1461015157806312e9e07e1461016f5780631ce9ae071461019f5780631d36cf5c146101bd5780631de7e45b146101d9575b600080fd5b610159610451565b6040516101669190612173565b60405180910390f35b6101896004803603810190610184919061222c565b610475565b6040516101969190612287565b60405180910390f35b6101a76105b0565b6040516101b491906122b1565b60405180910390f35b6101d760048036038101906101d2919061230c565b6105d4565b005b6101f360048036038101906101ee919061235f565b610692565b6040516102019291906123c7565b60405180910390f35b610224600480360381019061021f919061241c565b610726565b005b61022e6107eb565b60405161023b91906122b1565b60405180910390f35b61024c61080f565b6040516102599190612508565b60405180910390f35b61027c6004803603810190610277919061252a565b61089d565b6040516102899190612287565b60405180910390f35b61029a610943565b6040516102a79190612508565b60405180910390f35b6102b861097c565b6040516102c59190612508565b60405180910390f35b6102d66109b5565b6040516102e391906125dc565b60405180910390f35b6103066004803603810190610301919061252a565b6109d9565b005b610322600480360381019061031d919061265c565b610aaa565b005b61032c610d92565b6040516103399190612173565b60405180910390f35b61035c600480360381019061035791906126bc565b610db6565b6040516103699190612287565b60405180910390f35b61037a610de5565b6040516103879190612173565b60405180910390f35b6103aa60048036038101906103a5919061252a565b610e09565b005b6103c660048036038101906103c1919061230c565b611016565b005b6103e260048036038101906103dd919061222c565b6110d4565b6040516103f092919061273e565b60405180910390f35b61040161129f565b60405161040e9190612508565b60405180910390f35b61041f6112d8565b60405161042c9190612173565b60405180910390f35b61044f600480360381019061044a9190612767565b6112fc565b005b7f000000000000000000000000000000000000000000000000000000000000000081565b60008260007f000000000000000000000000000000000000000000000000000000000000000073ffffffffffffffffffffffffffffffffffffffff16630a631576836040518263ffffffff1660e01b81526004016104d39190612173565b60006040518083038186803b1580156104eb57600080fd5b505afa1580156104ff573d6000803e3d6000fd5b505050506040513d6000823e3d601f19601f8201168201806040525081019061052891906128f2565b50509050600073ffffffffffffffffffffffffffffffffffffffff168173ffffffffffffffffffffffffffffffffffffffff16141561059c576040517f08c379a0000000000000000000000000000000000000000000000000000000008152600401610593906129ad565b60405180910390fd5b6105a68585611469565b9250505092915050565b7f000000000000000000000000000000000000000000000000000000000000000081565b6105dd33611538565b61061c576040517f08c379a000000000000000000000000000000000000000000000000000000000815260040161061390612a19565b60405180910390fd5b610627838383611662565b3373ffffffffffffffffffffffffffffffffffffffff168273ffffffffffffffffffffffffffffffffffffffff16847fd19e89b7d547ccf349211588a9a1d29461e2ce984b1b1cdbe7150976528b86f1846040516106859190612a74565b60405180910390a4505050565b60008061069f8333610475565b6106de576040517f08c379a00000000000000000000000000000000000000000000000000000000081526004016106d590612adb565b60405180910390fd5b60006005600085815260200190815260200160002090508060000160009054906101000a9004601b0b81600001601c9054906101000a900463ffffffff169250925050915091565b61072f336116e0565b61076e576040517f08c379a000000000000000000000000000000000000000000000000000000000815260040161076590612b47565b60405180910390fd5b600061077b84848461180a565b90503373ffffffffffffffffffffffffffffffffffffffff168373ffffffffffffffffffffffffffffffffffffffff16857f2fa93828cf3f001b9a9f0a7365db04ea068b9db7bcb7a38d289f0cf8aa9ce37485856040516107dd929190612b67565b60405180910390a450505050565b7f000000000000000000000000000000000000000000000000000000000000000081565b6002805461081c90612bbf565b80601f016020809104026020016040519081016040528092919081815260200182805461084890612bbf565b80156108955780601f1061086a57610100808354040283529160200191610895565b820191906000526020600020905b81548152906001019060200180831161087857829003601f168201915b505050505081565b60006001600085815260200190815260200160002060008473ffffffffffffffffffffffffffffffffffffffff1673ffffffffffffffffffffffffffffffffffffffff16815260200190815260200160002060008373ffffffffffffffffffffffffffffffffffffffff1673ffffffffffffffffffffffffffffffffffffffff16815260200190815260200160002060009054906101000a900460ff1690509392505050565b6040518060400160405280601b81526020017f57686974656c6973742065787069726174696f6e20736574746572000000000081525081565b6040518060400160405280601d81526020017f57686974656c6973742065787069726174696f6e20657874656e64657200000081525081565b7f000000000000000000000000000000000000000000000000000000000000000081565b6109e2816116e0565b15610a22576040517f08c379a0000000000000000000000000000000000000000000000000000000008152600401610a1990612c3d565b60405180910390fd5b600080610a30858585611c80565b915091508115610aa3578273ffffffffffffffffffffffffffffffffffffffff168473ffffffffffffffffffffffffffffffffffffffff16867f29c394c1d92801cab93215bf9cd50ae38d23341be6540f27d80ee2bc8a5412373385604051610a9a929190612c5d565b60405180910390a45b5050505050565b7f000000000000000000000000000000000000000000000000000000000000000073ffffffffffffffffffffffffffffffffffffffff163373ffffffffffffffffffffffffffffffffffffffff1614610b38576040517f08c379a0000000000000000000000000000000000000000000000000000000008152600401610b2f90612cd2565b60405180910390fd5b6000600660008581526020019081526020016000205490506000801b811415610b96576040517f08c379a0000000000000000000000000000000000000000000000000000000008152600401610b8d90612d3e565b60405180910390fd5b600660008581526020019081526020016000206000905560008383810190610bbe9190612d94565b90507fffffffff80000000000000000000000000000000000000000000000000000000601b0b8112158015610c1257507b7fffffffffffffffffffffffffffffffffffffffffffffffffffffff601b0b8113155b610c51576040517f08c379a0000000000000000000000000000000000000000000000000000000008152600401610c4890612e0d565b60405180910390fd5b63ffffffff8016421115610c9a576040517f08c379a0000000000000000000000000000000000000000000000000000000008152600401610c9190612e79565b60405180910390fd5b604051806040016040528082601b0b81526020014263ffffffff168152506005600084815260200190815260200160002060008201518160000160006101000a8154817bffffffffffffffffffffffffffffffffffffffffffffffffffffffff0219169083601b0b7bffffffffffffffffffffffffffffffffffffffffffffffffffffffff160217905550602082015181600001601c6101000a81548163ffffffff021916908363ffffffff160217905550905050817fcb9c65e5f99c20826a331174f56e8c536161ecb0b5d598267e79c83567d477f1868342604051610d8393929190612e99565b60405180910390a25050505050565b7f000000000000000000000000000000000000000000000000000000000000000081565b60046020528160005260406000206020528060005260406000206000915091509054906101000a900460ff1681565b7f000000000000000000000000000000000000000000000000000000000000000081565b600460008373ffffffffffffffffffffffffffffffffffffffff1673ffffffffffffffffffffffffffffffffffffffff16815260200190815260200160002060003373ffffffffffffffffffffffffffffffffffffffff1673ffffffffffffffffffffffffffffffffffffffff16815260200190815260200160002060009054906101000a900460ff16610ed2576040517f08c379a0000000000000000000000000000000000000000000000000000000008152600401610ec990612f1c565b60405180910390fd5b60007f000000000000000000000000000000000000000000000000000000000000000073ffffffffffffffffffffffffffffffffffffffff1663acbe180085858530637c1de7e160e01b6040518663ffffffff1660e01b8152600401610f3c959493929190612fae565b602060405180830381600087803b158015610f5657600080fd5b505af1158015610f6a573d6000803e3d6000fd5b505050506040513d601f19601f82011682018060405250810190610f8e9190613014565b90508360066000838152602001908152602001600020819055503373ffffffffffffffffffffffffffffffffffffffff168373ffffffffffffffffffffffffffffffffffffffff16857fdb6e5ad2f932677d9abcb868239c24d484d5512caf71029b8b7c2309aeee760a8486604051611008929190613041565b60405180910390a450505050565b61101f33611ef6565b61105e576040517f08c379a0000000000000000000000000000000000000000000000000000000008152600401611055906130b6565b60405180910390fd5b611069838383612020565b3373ffffffffffffffffffffffffffffffffffffffff168273ffffffffffffffffffffffffffffffffffffffff16847fa9e0c89b898eb7a904617915dc5b5510d539c899810042e9248569b54b9cc2ed846040516110c79190612a74565b60405180910390a4505050565b6000808360007f000000000000000000000000000000000000000000000000000000000000000073ffffffffffffffffffffffffffffffffffffffff16630a631576836040518263ffffffff1660e01b81526004016111339190612173565b60006040518083038186803b15801561114b57600080fd5b505afa15801561115f573d6000803e3d6000fd5b505050506040513d6000823e3d601f19601f8201168201806040525081019061118891906128f2565b50509050600073ffffffffffffffffffffffffffffffffffffffff168173ffffffffffffffffffffffffffffffffffffffff1614156111fc576040517f08c379a00000000000000000000000000000000000000000000000000000000081526004016111f3906129ad565b60405180910390fd5b600080600088815260200190815260200160002060008773ffffffffffffffffffffffffffffffffffffffff1673ffffffffffffffffffffffffffffffffffffffff16815260200190815260200160002090508060000160009054906101000a900467ffffffffffffffff1694508060000160089054906101000a900477ffffffffffffffffffffffffffffffffffffffffffffffff1693505050509250929050565b6040518060400160405280601681526020017f496e646566696e6974652077686974656c69737465720000000000000000000081525081565b7f000000000000000000000000000000000000000000000000000000000000000081565b600073ffffffffffffffffffffffffffffffffffffffff168273ffffffffffffffffffffffffffffffffffffffff16141561136c576040517f08c379a000000000000000000000000000000000000000000000000000000000815260040161136390613122565b60405180910390fd5b80600460003373ffffffffffffffffffffffffffffffffffffffff1673ffffffffffffffffffffffffffffffffffffffff16815260200190815260200160002060008473ffffffffffffffffffffffffffffffffffffffff1673ffffffffffffffffffffffffffffffffffffffff16815260200190815260200160002060006101000a81548160ff0219169083151502179055508173ffffffffffffffffffffffffffffffffffffffff163373ffffffffffffffffffffffffffffffffffffffff167f5a3b1968640fbb8b12349ea1a58be5c61eaec6e38c11c38652f1d250207103ab8360405161145d9190612287565b60405180910390a35050565b60008060008085815260200190815260200160002060008473ffffffffffffffffffffffffffffffffffffffff1673ffffffffffffffffffffffffffffffffffffffff168152602001908152602001600020905060008160000160089054906101000a900477ffffffffffffffffffffffffffffffffffffffffffffffff1677ffffffffffffffffffffffffffffffffffffffffffffffff16118061152f5750428160000160009054906101000a900467ffffffffffffffff1667ffffffffffffffff16115b91505092915050565b60008173ffffffffffffffffffffffffffffffffffffffff167f000000000000000000000000000000000000000000000000000000000000000073ffffffffffffffffffffffffffffffffffffffff16148061165b57507f000000000000000000000000000000000000000000000000000000000000000073ffffffffffffffffffffffffffffffffffffffff166391d148547f0000000000000000000000000000000000000000000000000000000000000000846040518363ffffffff1660e01b815260040161160a929190613041565b60206040518083038186803b15801561162257600080fd5b505afa158015611636573d6000803e3d6000fd5b505050506040513d601f19601f8201168201806040525081019061165a9190613157565b5b9050919050565b8060008085815260200190815260200160002060008473ffffffffffffffffffffffffffffffffffffffff1673ffffffffffffffffffffffffffffffffffffffff16815260200190815260200160002060000160006101000a81548167ffffffffffffffff021916908367ffffffffffffffff160217905550505050565b60008173ffffffffffffffffffffffffffffffffffffffff167f000000000000000000000000000000000000000000000000000000000000000073ffffffffffffffffffffffffffffffffffffffff16148061180357507f000000000000000000000000000000000000000000000000000000000000000073ffffffffffffffffffffffffffffffffffffffff166391d148547f0000000000000000000000000000000000000000000000000000000000000000846040518363ffffffff1660e01b81526004016117b2929190613041565b60206040518083038186803b1580156117ca57600080fd5b505afa1580156117de573d6000803e3d6000fd5b505050506040513d601f19601f820116820180604052508101906118029190613157565b5b9050919050565b600080600085815260200190815260200160002060008473ffffffffffffffffffffffffffffffffffffffff1673ffffffffffffffffffffffffffffffffffffffff16815260200190815260200160002060000160089054906101000a900477ffffffffffffffffffffffffffffffffffffffffffffffff16905081801561192a57506001600085815260200190815260200160002060008473ffffffffffffffffffffffffffffffffffffffff1673ffffffffffffffffffffffffffffffffffffffff16815260200190815260200160002060003373ffffffffffffffffffffffffffffffffffffffff1673ffffffffffffffffffffffffffffffffffffffff16815260200190815260200160002060009054906101000a900460ff16155b15611a8057600180600086815260200190815260200160002060008573ffffffffffffffffffffffffffffffffffffffff1673ffffffffffffffffffffffffffffffffffffffff16815260200190815260200160002060003373ffffffffffffffffffffffffffffffffffffffff1673ffffffffffffffffffffffffffffffffffffffff16815260200190815260200160002060006101000a81548160ff02191690831515021790555080806119df906131b3565b9150508060008086815260200190815260200160002060008573ffffffffffffffffffffffffffffffffffffffff1673ffffffffffffffffffffffffffffffffffffffff16815260200190815260200160002060000160086101000a81548177ffffffffffffffffffffffffffffffffffffffffffffffff021916908377ffffffffffffffffffffffffffffffffffffffffffffffff160217905550611c79565b81158015611b2557506001600085815260200190815260200160002060008473ffffffffffffffffffffffffffffffffffffffff1673ffffffffffffffffffffffffffffffffffffffff16815260200190815260200160002060003373ffffffffffffffffffffffffffffffffffffffff1673ffffffffffffffffffffffffffffffffffffffff16815260200190815260200160002060009054906101000a900460ff165b15611c785760006001600086815260200190815260200160002060008573ffffffffffffffffffffffffffffffffffffffff1673ffffffffffffffffffffffffffffffffffffffff16815260200190815260200160002060003373ffffffffffffffffffffffffffffffffffffffff1673ffffffffffffffffffffffffffffffffffffffff16815260200190815260200160002060006101000a81548160ff0219169083151502179055508080611bdb906131f4565b9150508060008086815260200190815260200160002060008573ffffffffffffffffffffffffffffffffffffffff1673ffffffffffffffffffffffffffffffffffffffff16815260200190815260200160002060000160086101000a81548177ffffffffffffffffffffffffffffffffffffffffffffffff021916908377ffffffffffffffffffffffffffffffffffffffffffffffff1602179055505b5b9392505050565b60008060008086815260200190815260200160002060008573ffffffffffffffffffffffffffffffffffffffff1673ffffffffffffffffffffffffffffffffffffffff16815260200190815260200160002060000160089054906101000a900477ffffffffffffffffffffffffffffffffffffffffffffffff1690506001600086815260200190815260200160002060008573ffffffffffffffffffffffffffffffffffffffff1673ffffffffffffffffffffffffffffffffffffffff16815260200190815260200160002060008473ffffffffffffffffffffffffffffffffffffffff1673ffffffffffffffffffffffffffffffffffffffff16815260200190815260200160002060009054906101000a900460ff1615611eee5760006001600087815260200190815260200160002060008673ffffffffffffffffffffffffffffffffffffffff1673ffffffffffffffffffffffffffffffffffffffff16815260200190815260200160002060008573ffffffffffffffffffffffffffffffffffffffff1673ffffffffffffffffffffffffffffffffffffffff16815260200190815260200160002060006101000a81548160ff0219169083151502179055508080611e4d906131f4565b9150508060008087815260200190815260200160002060008673ffffffffffffffffffffffffffffffffffffffff1673ffffffffffffffffffffffffffffffffffffffff16815260200190815260200160002060000160086101000a81548177ffffffffffffffffffffffffffffffffffffffffffffffff021916908377ffffffffffffffffffffffffffffffffffffffffffffffff160217905550600191505b935093915050565b60008173ffffffffffffffffffffffffffffffffffffffff167f000000000000000000000000000000000000000000000000000000000000000073ffffffffffffffffffffffffffffffffffffffff16148061201957507f000000000000000000000000000000000000000000000000000000000000000073ffffffffffffffffffffffffffffffffffffffff166391d148547f0000000000000000000000000000000000000000000000000000000000000000846040518363ffffffff1660e01b8152600401611fc8929190613041565b60206040518083038186803b158015611fe057600080fd5b505afa158015611ff4573d6000803e3d6000fd5b505050506040513d601f19601f820116820180604052508101906120189190613157565b5b9050919050565b60008084815260200190815260200160002060008373ffffffffffffffffffffffffffffffffffffffff1673ffffffffffffffffffffffffffffffffffffffff16815260200190815260200160002060000160009054906101000a900467ffffffffffffffff1667ffffffffffffffff168167ffffffffffffffff16116120dc576040517f08c379a00000000000000000000000000000000000000000000000000000000081526004016120d39061326a565b60405180910390fd5b8060008085815260200190815260200160002060008473ffffffffffffffffffffffffffffffffffffffff1673ffffffffffffffffffffffffffffffffffffffff16815260200190815260200160002060000160006101000a81548167ffffffffffffffff021916908367ffffffffffffffff160217905550505050565b6000819050919050565b61216d8161215a565b82525050565b60006020820190506121886000830184612164565b92915050565b6000604051905090565b600080fd5b600080fd5b6121ab8161215a565b81146121b657600080fd5b50565b6000813590506121c8816121a2565b92915050565b600073ffffffffffffffffffffffffffffffffffffffff82169050919050565b60006121f9826121ce565b9050919050565b612209816121ee565b811461221457600080fd5b50565b60008135905061222681612200565b92915050565b6000806040838503121561224357612242612198565b5b6000612251858286016121b9565b925050602061226285828601612217565b9150509250929050565b60008115159050919050565b6122818161226c565b82525050565b600060208201905061229c6000830184612278565b92915050565b6122ab816121ee565b82525050565b60006020820190506122c660008301846122a2565b92915050565b600067ffffffffffffffff82169050919050565b6122e9816122cc565b81146122f457600080fd5b50565b600081359050612306816122e0565b92915050565b60008060006060848603121561232557612324612198565b5b6000612333868287016121b9565b935050602061234486828701612217565b9250506040612355868287016122f7565b9150509250925092565b60006020828403121561237557612374612198565b5b6000612383848285016121b9565b91505092915050565b600081601b0b9050919050565b6123a28161238c565b82525050565b600063ffffffff82169050919050565b6123c1816123a8565b82525050565b60006040820190506123dc6000830185612399565b6123e960208301846123b8565b9392505050565b6123f98161226c565b811461240457600080fd5b50565b600081359050612416816123f0565b92915050565b60008060006060848603121561243557612434612198565b5b6000612443868287016121b9565b935050602061245486828701612217565b925050604061246586828701612407565b9150509250925092565b600081519050919050565b600082825260208201905092915050565b60005b838110156124a957808201518184015260208101905061248e565b838111156124b8576000848401525b50505050565b6000601f19601f8301169050919050565b60006124da8261246f565b6124e4818561247a565b93506124f481856020860161248b565b6124fd816124be565b840191505092915050565b6000602082019050818103600083015261252281846124cf565b905092915050565b60008060006060848603121561254357612542612198565b5b6000612551868287016121b9565b935050602061256286828701612217565b925050604061257386828701612217565b9150509250925092565b6000819050919050565b60006125a261259d612598846121ce565b61257d565b6121ce565b9050919050565b60006125b482612587565b9050919050565b60006125c6826125a9565b9050919050565b6125d6816125bb565b82525050565b60006020820190506125f160008301846125cd565b92915050565b600080fd5b600080fd5b600080fd5b60008083601f84011261261c5761261b6125f7565b5b8235905067ffffffffffffffff811115612639576126386125fc565b5b60208301915083600182028301111561265557612654612601565b5b9250929050565b60008060006040848603121561267557612674612198565b5b6000612683868287016121b9565b935050602084013567ffffffffffffffff8111156126a4576126a361219d565b5b6126b086828701612606565b92509250509250925092565b600080604083850312156126d3576126d2612198565b5b60006126e185828601612217565b92505060206126f285828601612217565b9150509250929050565b612705816122cc565b82525050565b600077ffffffffffffffffffffffffffffffffffffffffffffffff82169050919050565b6127388161270b565b82525050565b600060408201905061275360008301856126fc565b612760602083018461272f565b9392505050565b6000806040838503121561277e5761277d612198565b5b600061278c85828601612217565b925050602061279d85828601612407565b9150509250929050565b6000815190506127b681612200565b92915050565b6000815190506127cb816121a2565b92915050565b600080fd5b7f4e487b7100000000000000000000000000000000000000000000000000000000600052604160045260246000fd5b61280e826124be565b810181811067ffffffffffffffff8211171561282d5761282c6127d6565b5b80604052505050565b600061284061218e565b905061284c8282612805565b919050565b600067ffffffffffffffff82111561286c5761286b6127d6565b5b612875826124be565b9050602081019050919050565b600061289561289084612851565b612836565b9050828152602081018484840111156128b1576128b06127d1565b5b6128bc84828561248b565b509392505050565b600082601f8301126128d9576128d86125f7565b5b81516128e9848260208601612882565b91505092915050565b60008060006060848603121561290b5761290a612198565b5b6000612919868287016127a7565b935050602061292a868287016127bc565b925050604084015167ffffffffffffffff81111561294b5761294a61219d565b5b612957868287016128c4565b9150509250925092565b7f54656d706c61746520646f6573206e6f74206578697374000000000000000000600082015250565b600061299760178361247a565b91506129a282612961565b602082019050919050565b600060208201905081810360008301526129c68161298a565b9050919050565b7f4e6f742065787069726174696f6e207365747465720000000000000000000000600082015250565b6000612a0360158361247a565b9150612a0e826129cd565b602082019050919050565b60006020820190508181036000830152612a32816129f6565b9050919050565b6000819050919050565b6000612a5e612a59612a54846122cc565b61257d565b612a39565b9050919050565b612a6e81612a43565b82525050565b6000602082019050612a896000830184612a65565b92915050565b7f43616c6c6572206e6f742077686974656c697374656400000000000000000000600082015250565b6000612ac560168361247a565b9150612ad082612a8f565b602082019050919050565b60006020820190508181036000830152612af481612ab8565b9050919050565b7f4e6f7420696e646566696e6974652077686974656c6973746572000000000000600082015250565b6000612b31601a8361247a565b9150612b3c82612afb565b602082019050919050565b60006020820190508181036000830152612b6081612b24565b9050919050565b6000604082019050612b7c6000830185612278565b612b89602083018461272f565b9392505050565b7f4e487b7100000000000000000000000000000000000000000000000000000000600052602260045260246000fd5b60006002820490506001821680612bd757607f821691505b60208210811415612beb57612bea612b90565b5b50919050565b7f73657474657220697320696e646566696e6974652077686974656c6973746572600082015250565b6000612c2760208361247a565b9150612c3282612bf1565b602082019050919050565b60006020820190508181036000830152612c5681612c1a565b9050919050565b6000604082019050612c7260008301856122a2565b612c7f602083018461272f565b9392505050565b7f43616c6c6572206e6f74204169726e6f64652052525000000000000000000000600082015250565b6000612cbc60168361247a565b9150612cc782612c86565b602082019050919050565b60006020820190508181036000830152612ceb81612caf565b9050919050565b7f4e6f20737563682072657175657374206d616465000000000000000000000000600082015250565b6000612d2860148361247a565b9150612d3382612cf2565b602082019050919050565b60006020820190508181036000830152612d5781612d1b565b9050919050565b6000819050919050565b612d7181612d5e565b8114612d7c57600080fd5b50565b600081359050612d8e81612d68565b92915050565b600060208284031215612daa57612da9612198565b5b6000612db884828501612d7f565b91505092915050565b7f56616c7565207479706563617374696e67206572726f72000000000000000000600082015250565b6000612df760178361247a565b9150612e0282612dc1565b602082019050919050565b60006020820190508181036000830152612e2681612dea565b9050919050565b7f54696d657374616d70207479706563617374696e67206572726f720000000000600082015250565b6000612e63601b8361247a565b9150612e6e82612e2d565b602082019050919050565b60006020820190508181036000830152612e9281612e56565b9050919050565b6000606082019050612eae6000830186612164565b612ebb6020830185612399565b612ec860408301846123b8565b949350505050565b7f43616c6c6572206e6f74207065726d6974746564000000000000000000000000600082015250565b6000612f0660148361247a565b9150612f1182612ed0565b602082019050919050565b60006020820190508181036000830152612f3581612ef9565b9050919050565b60007fffffffff0000000000000000000000000000000000000000000000000000000082169050919050565b612f7181612f3c565b82525050565b600082825260208201905092915050565b50565b6000612f98600083612f77565b9150612fa382612f88565b600082019050919050565b600060c082019050612fc36000830188612164565b612fd060208301876122a2565b612fdd60408301866122a2565b612fea60608301856122a2565b612ff76080830184612f68565b81810360a083015261300881612f8b565b90509695505050505050565b60006020828403121561302a57613029612198565b5b6000613038848285016127bc565b91505092915050565b60006040820190506130566000830185612164565b61306360208301846122a2565b9392505050565b7f4e6f742065787069726174696f6e20657874656e646572000000000000000000600082015250565b60006130a060178361247a565b91506130ab8261306a565b602082019050919050565b600060208201905081810360008301526130cf81613093565b9050919050565b7f55706461746520726571756573746572207a65726f0000000000000000000000600082015250565b600061310c60158361247a565b9150613117826130d6565b602082019050919050565b6000602082019050818103600083015261313b816130ff565b9050919050565b600081519050613151816123f0565b92915050565b60006020828403121561316d5761316c612198565b5b600061317b84828501613142565b91505092915050565b7f4e487b7100000000000000000000000000000000000000000000000000000000600052601160045260246000fd5b60006131be8261270b565b915077ffffffffffffffffffffffffffffffffffffffffffffffff8214156131e9576131e8613184565b5b600182019050919050565b60006131ff8261270b565b9150600082141561321357613212613184565b5b600182039050919050565b7f446f6573206e6f7420657874656e642065787069726174696f6e000000000000600082015250565b6000613254601a8361247a565b915061325f8261321e565b602082019050919050565b6000602082019050818103600083015261328381613247565b905091905056fea26469706673582212207139f28841686ced66917b0da91f2682d02c1612ebabd51fed3ee61bee415d6a64736f6c63430008090033",
  "linkReferences": {},
  "deployedLinkReferences": {}
}